:020000040800F2
:10000000E80C0020D5020008DD020008DF0200082D
:10001000E1020008E3020008E50200080000000019
:10002000000000000000000000000000E7020008DF
:10003000E902000800000000EB020008152100089A
:10004000EF020008EF020008EF020008EF020008CC
:10005000EF020008EF020008EF020008EF020008BC
:10006000EF020008A91F0008EF020008EF020008D5
:10007000EF020008EF020008EF020008EF0200089C
:10008000EF020008EF020008791E0008EF020008E6
:10009000EF020008EF020008EF020008EF0200087C
:1000A000EF020008EF020008EF020008EF0200086C
:1000B00059220008E1220008EF020008EF020008C0
:1000C000EF020008EF020008EF020008EF0200084C
:1000D000EF020008EF020008EF020008EF0200083C
:1000E000EF020008EF020008EF020008EF0200082C
:1000F000EF020008EF020008EF020008EF0200081C
:10010000EF020008EF020008EF020008EF0200080B
:10011000EF020008EF020008EF020008EF020008FB
:100120002D1F0008511F0008EF020008EF02000811
:10013000EF020008EF020008EF020008EF020008DB
:10014000EF020008EF020008EF020008EF020008CB
:10015000EF020008EF020008EF020008EF020008BB
:10016000EF020008EF020008EF020008EF020008AB
:10017000EF020008EF020008EF0200080000000094
:10018000EF020008EF02000800F002F800F092F819
:100190000AA090E8000C82448344AAF10107DA45E2
:1001A00001D100F087F8AFF2090EBAE80F0013F0A2
:1001B000010F18BFFB1A43F0010318471C30000061
:1001C0003C300000103A24BF78C878C1FAD85207F2
:1001D00024BF30C830C144BF04680C6070470000C1
:1001E0000023002400250026103A28BF78C1FBD840
:1001F000520728BF30C148BF0B6070476E2900F01E
:100200003D81702900F07F82662902F028856529EA
:1002100002F02585672902F02285612902F02185F7
:1002200003681B0A28BF41F08001692900F0EA80B9
:10023000642900F0E780752900F0E4806F2900F060
:100240000C82782900F04B82E92900F0A781E4298B
:1002500000F0A481F52900F0A181EF2900F00982C6
:10026000F82900F04A820368DB0928BF41F08001C9
:10027000632900F04D87732900F05287E32900F0CD
:100280005D87F32900F06287002070471FB502F0F8
:10029000E1FC00F0ADFF04000020002102F0C4FCEE
:1002A000401C60600020002102F0A8FCE0601FBD3F
:1002B00010B510BD00F06EFF1146FFF7E7FF02F02A
:1002C000F9FB01F04BF803B4FFF7F2FF03BC01F0B8
:1002D00093F800000948804709480047FEE7FEE719
:1002E000FEE7FEE7FEE7FEE7FEE7FEE7FEE7FEE7E6
:1002F00004480549054A064B70470000492200089A
:1003000089010008E8060020E80C0020E808002029
:10031000E80800201CB50C46064B7B44694600905B
:10032000204600F0C4F804460020694600F0D2F8E8
:1003300020461CBDB701000070477047704770B57C
:10034000044685690068C10601D5302600E02026F4
:10035000C00707D070BDD4E9012130469047206A1C
:10036000401C20626D1EF6D570BD70B504468569CF
:100370000078C00707D170BDD4E901212020904743
:10038000206A401C20626D1EF6D570BD09684A05C2
:1003900001D540B27047C905FCD500B27047096865
:1003A0004A0501D5C0B27047C905FCD580B2704777
:1003B00070B50C460546012A05D02878800600D580
:1003C000EA69002302E0012305E05B1C934202D2AC
:1003D000E05C0028F9D1A869E618C01AA861286A6B
:1003E000184428622846FFF7AAFF04E0D5E9012156
:1003F00014F8010B9047B442F8D32846FFF7B5FF35
:1004000070BD00002DE9F0410646002410687529F2
:10041000314616A510D0FFF7B9FF002802DA404296
:1004200013A507E031688A0701D512A502E0490744
:1004300004D511A5012401E0FFF7B1FF00210A2234
:1004400006F1240709E0B0FBF2FCB0FBF2F302FB7B
:100450001C00303078541846491C0028F3D123463C
:100460002A463046BDE8F04100F061BA00000000C5
:100470002D0000002B000000200000001168026821
:10048000006A530501D508700AE0D30501D508803C
:1004900006E0130603D5C217C1E9000200E00860B8
:1004A0000120704701694A1C02610878704700B555
:1004B0008FB0CDE901310021059105497944CDE99D
:1004C00003101146684600F029F90FB000BD000086
:1004D000E5FFFFFF0A6802F8010B0A6070470000A1
:1004E0002DE9FF5F15468A460446DFF8AC80F844E4
:1004F0000027D8E900103E46CDE9001010E03AF898
:1005000016106A4602A800F025FE411C07D021788B
:10051000890603D5E269391891420DD80744761C43
:100520002078800602D5E069B84205DDAE42E6DB00
:100530003AF816000028E2D1A069C01BA06120464D
:10054000FFF7FDFED8E90010CDE90010002017E00C
:100550003AF818106A4602A800F0FCFDB0F1FF3F1F
:1005600081460BD000250DF1080B05E0D4E90121EF
:100570001BF8050090476D1C4D45F7D308F10100AD
:10058000B0428046E4DB206A384420622046FFF710
:10059000ECFEBDE8FF9F0000EA2B00002DE9F041D2
:1005A0008046D21D22F007020025D2E90002F5297B
:1005B00015A614D0011E72F1000106DA0023D0EB5B
:1005C000030063EB020211A608E0D8F800108B07C5
:1005D00001D50FA602E0490701D50EA60125114657
:1005E000002408F1240704E000F05CF930323A55A9
:1005F000641C50EA0102F7D12B46324621464046A0
:10060000BDE8F04100F093B9000000002D000000AB
:100610002B0000002000000030B4002100F1240471
:1006200008E002F00705D208303542EA4372DB08E1
:100630006554491C52EA0305F3D10468002310A253
:10064000250707D5A40600D421B1C46901230DA252
:10065000641EC46130BC00F06AB910B5044621467E
:100660001068FFF79CFE02462046BDE810400023BC
:10067000D2E7D21D22F00701D1E90023CCE7000028
:100680000000000030000000F0B40D4601880905AC
:1006900002D5214C7C4402E01F4C7C440E340021E6
:1006A00000F1240608E002F00F071209E75D42EAB4
:1006B00003721B097754491C52EA0307F3D10278ED
:1006C0000023120704D5702D06D009B1022311347E
:1006D0002246F0BC00F02BB901231034F8E770B5C6
:1006E00004460D4621461068FFF759FE024629468A
:1006F0002046BDE870400023C6E7D21D22F0070364
:10070000D3E90023C0E70368126843F020030360C5
:100710000823C3610023B7E74C2A00002DE9F05FEE
:10072000894604464FF0000ADFF874B1FB44C0F874
:1007300020A02046E1688847002874D0252806D0EC
:10074000D4E901219047206A401C2062F1E700268D
:100750005F462046E16888472028054607DB312DA3
:1007600005D2781910F8200C08B10643F1E7B0075C
:1007700001D526F00406C4F81CA00027C4F818A070
:100780002A2D09D0284601F01EFE38B304EB870855
:10079000303DC8F8185019E059F8041B204604EB06
:1007A00087029161E1688847012F054618D1E06909
:1007B000002820DA26F020061DE0D8F8180000EB0B
:1007C000800005EB40003038C8F818002046E1688A
:1007D0008847054601F0F7FD0028EED1012F0AD029
:1007E0002E2D08D12046E16888477F1C0546022F40
:1007F00046F02006C4DBA069002803DA404246F038
:100800000106A061F00701D026F010066C2D0BD078
:10081000682D09D04C2D39D06A2D35D0742D35D0A6
:100820007A2D33D016E038E0E1682F46204688471D
:10083000B842054609D16C2F26D04FF48060E1689C
:10084000064320468847054604E06C2F1AD04FF433
:10085000807006430DB3A5F14100192802D8203558
:1008600046F400664A462946204626604E46FFF773
:10087000C5FC80B101280BD0F61D26F0070000F161
:10088000080956E74020E4E78020D8E70020D6E7B3
:1008900006F104094DE7284652E7206ABDE8F09FBB
:1008A000DC29000030B5B0F10A024FEA900E71F178
:1008B00000034EEA817EB0EB0E0061EB91014FEA3E
:1008C000101E4EEA017E10EB0E0041EB11114FEAB3
:1008D000102E4EEA016E10EB0E0041EB11214FEA93
:1008E000104E4EEA014E10EB0E0041EB1141401844
:1008F00041F100014FEAD00040EA41704FEAD101D6
:1009000010EB80054FEA810444EA907444EB010443
:100910006D1944EB0404521BA3414FF0000348BF80
:100920000A3200D530BD401C41F1000130BD2DE937
:10093000F0470D4699469246044600F124080168A6
:10094000880604D5E06921F01001216000E0012053
:10095000A84201DD471B00E00027A1697A1902EBDC
:100960000900081AA0612078C00602D42046FFF7CB
:10097000E6FC002608E0D4E901211AF806009047B9
:10098000206A401C761C20624E45F4DB2078C006AD
:100990000AD52046FFF7D3FC06E0D4E90121302038
:1009A0009047206A401C2062381EA7F10107F4DC42
:1009B00007E0D4E9012118F805009047206A401C9F
:1009C0002062281EA5F10105F3DC2046FFF7CDFCCF
:1009D0002078000602D50220BDE8F0870120FBE761
:1009E00070472DE9FF4F0C461E464FF0FF378BB086
:1009F000D2E90001DDF860800A908A46C1F30A5509
:100A000005B93D46002108464FF00000BAF1000F3D
:100A100000F4400005DA00EB80004FF4400101EAE9
:100A200050004FEA9059B9F1010F00DDB9460A981C
:100A300050EA4A000ED044F61050A5F2FF35454367
:100A40002F14B8F1000F1ED07542291E1EDDC9F10A
:100A500000021CE0B8F1010F4FF0000001D030217E
:100A600003E0F24305E02154401CB042FBDB30467A
:100A70000022002121540B99C1F80880C1E900200F
:100A80000FB0BDE8F08FBD1B6D1CDEE74A4600DAF3
:100A9000694206A800F0F0FB06AB93E8070003AB41
:100AA00083E8070050460A9900F0ADFC8DE8070086
:100AB000A0F500501F3800900398002D0ADD42F287
:100AC0001F014A460844002303A90390684600F02A
:100AD00016FF09E0A0F500504A461F38002303A97D
:100AE0000390684600F020FF8DE807000004000C2A
:100AF00003D04FF0FF30410800E01046B8F1000F7E
:100B000003D00022009215461EE0751E05D4FFF7A3
:100B1000C9FE303262556D1EF9D5B3460122084335
:100B200002D000227F1C04E02078302801D100226E
:100B30007F1E002A099784D01DE0112D07DAFFF7E8
:100B4000B1FE303262556D1C50EA0102F5D1084306
:100B500002D00098C8B10EE00021681E05E0235CB9
:100B6000625C63542254401E491C8142F7DBAB4651
:100B7000A81B401E0990002004F80B000B98099A4E
:100B8000C0F80880C0E9002B7AE711264FF0000872
:100B900057E72DE9F04F88460446D21D22F00701A1
:100BA00091B0D1E90001CDE90A0101F0E7FB02466D
:100BB0000B98C00F01D02D2007E02068810701D5D8
:100BC0002B2002E0202101EAC000032A099001D075
:100BD000072A05DB03464146204600F00DFB0BE1EA
:100BE0002078800601D5E06900E00620B8F1650FA5
:100BF000814606D0B8F1660F18D0B8F1670F70D1F2
:100C000031E00020B9F1110F009001DB112301E068
:100C100009F101030AAA01A90CA8FFF7E2FEDDE928
:100C20000C70002609F10105834647E001204B4680
:100C300000904FF000470AAA01A90CA8FFF7D1FEC7
:100C4000DDE90DB00C995D46002610B909F10100EF
:100C50000D18B9EB050003D4C0F1FF3609F1010509
:100C6000A5EB09002BE0B9F1010F01DA4FF0010902
:100C70000020B9F1110F0090484601DD112300E07A
:100C800003460AAA01A90CA8FFF7ABFEDDE90C7028
:100C90004D4600268346207800070AD4AB4500DA8B
:100CA0005D4601A8012D04DD411911F8011C302910
:100CB00007D04F4502DA17F1040F04DA012082460B
:100CC0000FE06D1EEEE7002F02DCED1B3E4403E05B
:100CD000781CA84200DD7D1CB81B00F1010A4FF012
:100CE00000472078000703D4AA4501DB4FF0FF3A04
:100CF0000021B7F1004F0DF143088DF8431024D0C7
:100D000002202B23002F01DA7F422D230A21021E0D
:100D1000A0F1010000DC5FB197FBF1FC97FBF1F261
:100D200001FB1C7C17460CF1300C08F801CDEEE7F6
:100D3000A8F1010003702188090501D5452100E0D3
:100D40006521A0F1010800F8011C09980FA9A1EB89
:100D50000807FF1D00B10120411901EBEA70A169EC
:100D60003844081A401EA0612078C00602D42046EC
:100D7000FFF7E5FA099828B1D4E901219047206AE4
:100D8000401C20622078C00622D52046FFF7D7FA03
:100D90001EE0002E04DBB34502DD01A8805D00E00B
:100DA0003020D4E901219047206A401C2062761C43
:100DB000AAF101005FEA000A0AD100F019FAC0683E
:100DC0000168405CD4E901219047206A401C206200
:100DD000281EA5F10105DCDC07E0D4E9012118F8A3
:100DE000010B9047206A401C2062381EA7F10107C2
:100DF000F3DC2046FFF7B9FA032011B041E600000A
:100E00002DE9F04F04460D46D21D22F0070089B0AF
:100E1000D0E900974846394601F0B0FA0246F80F8B
:100E200001D02D2307E02068810701D52B2302E0A4
:100E3000202101EAC0038DF820300BB1012000E031
:100E40000020032A824601D0072A04DB29462046D7
:100E500000F0D2F93FE12078800601D40D2500E0B2
:100E6000E569C7F30A560D2D49DA00214FEA175BF1
:100E700008464FF00000002F00F4400007DA00EBB6
:100E800080004FF4400100EBD07001EA6000811552
:100E9000012901DD4FF0FF3100224FEA850CBCF142
:100EA000180F06D31346ACF118004FF08052C24021
:100EB00003E04FF4801323FA0CF30CF10C0CBCF19B
:100EC000200F04D3ACF1200C09FA0CF001E007FA72
:100ED0000CF000294FF0004801DD18B90FE00ED1E9
:100EE00040450CD319EB02095F4121B9404502D1BD
:100EF0009F4329EA0209BBEB175F00D0761C2088CC
:100F0000000502D57B48784402E07A4878441938D5
:100F100008AA302302F80A30037C0AF10101002EEE
:100F20000AF1020A53546A4602DC4FF0300101E034
:100F30004FF031014FF001088DF8001002D0A6F2F9
:100F4000FF3603E059EA470100D06B4E002D02DC6A
:100F50002178090704D54FF002082E218DF80110E1
:100F6000C44600210BE0C7F303433F01C35C491CA7
:100F70006D1E02F80830052908F1010801DA002D7C
:100F8000F1DC00210CE000EB1973491C1B786D1E8D
:100F9000082902F808304FEA091908F1010801DAB6
:100FA000002DF0DC21688B0602D516E0A8F10108BF
:100FB000E04505DD02EB080313F8013C302BF5D0CA
:100FC000B8F1000F09DD02EB080313F8013C2E2BEA
:100FD00003D1090701D4A8F10108002D05DD3E2148
:100FE00002F808106D1E08F10108407C002E02F87E
:100FF000080008F1010804DA2D20764202F8080002
:1010000002E02B2002F808000A214FF47A70864291
:1010100008F101080BDB96FBF0F3303302F80830DF
:1010200096FBF0F308F1010800FB136601E0642E63
:101030000CDB642096FBF0F3303302F8083096FBAB
:10104000F0F308F1010800FB136601E00A2E06DB4D
:1010500096FBF1F0303002F8080008F1010896FB29
:10106000F1F001FB1060303002F80800A16908F1CE
:10107000010808EB050202EB0A00081AA0612078BB
:10108000C00602D42046FFF75AF9216A08AE01EBE8
:101090000A00206204E0D4E9012116F8010B904710
:1010A000BAF1010AF7D22078C00602D52046FFF730
:1010B00046F96E4609E016F8010B3E280FD0D4E938
:1010C00001219047206A401C2062B8F10108F2D249
:1010D0002046FFF74AF909B00320BDE8F08F206AE7
:1010E0002844206203E0D4E90121302090476D1E9E
:1010F000EBD3F8E72622000002FCFFFF10B543699E
:1011000013B1AFF3008001E0FFF752F9012010BDE9
:10111000127800F124010A7000224A700122EDE7E2
:1011200011684FF0FF32E9E710B5436913B1AFF32F
:10113000008001E0FFF7D4F9012010BD128800F112
:10114000240182840022C2840122EDE711684FF05D
:10115000FF32E9E770B516460C46054600F040F848
:10116000036893F80101012806D0FF2C0FD8185D01
:1011700068B101202C7070BDD3F8070132462146BA
:1011800003F2071303442846BDE8704018474FF0A8
:10119000FF3070BD754600F0EBF8AE4605006946BD
:1011A000534620F00700854618B020B5FFF7A0F899
:1011B000BDE820404FF000064FF000074FF0000858
:1011C0004FF0000B21F00701AC46ACE8C009ACE8D9
:1011D000C009ACE8C009ACE8C0098D467047000002
:1011E00010B500F005F8001D10BD00BF3D1A00004D
:1011F00000487047A40600202DE9F0411F46044630
:1012000003260168072A01F4006004DB08B116A573
:1012100005E016A503E008B115A500E015A521F02D
:1012200010002060A069C01EA0610FB1401EA06127
:101230002046FFF784F84FB1D4E9012138469047A2
:10124000206A401C2062C01C206206E0206AFAE787
:10125000D4E9012115F8010B9047761EF8D22046FB
:10126000FFF783F8BDE8F0814E414E006E616E00DD
:10127000494E4600696E66002DE9F04781461646E4
:101280008AB0354878440DC88DE80D00324878445E
:10129000801C03AC0DC884E80D0041F69B30084467
:1012A000372190FBF1F290FBF1F5A5F1800501FBF0
:1012B00012041B3C02D56442012000E00020DFF84C
:1012C00098A080460027FA44AAF1BE0A0EE0E00783
:1012D0000AD03246684607EB470101230AEB810139
:1012E00000F022FB8DE8070064107F1C002CEED17B
:1012F000194F7F44AE3F19E0E80715D007EB041003
:101300000DF1180A90E80E008AE80E00C068F0425D
:1013100001D1981908903246012306A903A800F0CC
:1013200003FB03AB83E807006D10641C002DE3D1C1
:101330004FF0010332466946B8F1000F03A802D00E
:1013400000F0DDFA01E000F0EFFAC9E90001C9F8A8
:1013500008200AB0BDE8F087381F000010B5044629
:10136000AFF300802046BDE81040FEF7ACBF0000A0
:1013700000487047840600204FF0013C50F8042BD1
:1013800051F8043B9A4221D1A2EB0C03934313EA98
:10139000CC1317D150F8042B51F8043B9A4215D1C5
:1013A000A2EB0C03934313EACC130BD150F8042B9C
:1013B00051F8043B9A4209D1A2EB0C03934313EA80
:1013C000CC13DBD04FF00000704700BFD01A01BA39
:1013D000B1FA81F101F0180122FA01F0CB40C1F11C
:1013E0002001DBB2C0B2C01A2CFA01F3D11A91432A
:1013F00011EAC311E6D1704701491820ABBEFEE7E0
:101400002600020070475FEA400C08BF91F0000F11
:101410004FEA8C234FEAC12243EA51514FEA1C5054
:1014200018BF00F5F0404FEA300018BF41F000410E
:101430005FEA6C5C00F02980BCF1FF3F08BF40F020
:1014400080407047130C06BF12044FF0100C4FF091
:10145000000C130E04BF12020CF1080C130F04BF92
:1014600012010CF1040C930F04BF92000CF1020C5A
:10147000D30F04BF52000CF1010C11464FF00002D3
:10148000A0F11F00A0EB0C00704711F0004F08BF47
:10149000704731F000413FF4D5AF0B0C06BF090493
:1014A0004FF0100C4FF0000C0B0E04BF09020CF1B2
:1014B000080C0B0F04BF09010CF1040C8B0F04BFC7
:1014C00089000CF1020CCB0F04BF49000CF1010C98
:1014D000CCF12003A0EB0C0022FA03F302FA0CF289
:1014E00041EA030100F10100704720F07F4C80EADF
:1014F000030023F07F47ACEB070303F57C5300F0B8
:10150000004003F1FF032DE980494FEA154B09B470
:101510004FEA144325EA0B4E24EA03480FF204264F
:1015200006EB132749083E785FEA320203FB0667A1
:10153000C7F5000707FB06F64FEA54374FEAD646D1
:1015400006F1020607FB066CCCF1005C4FEA1C4773
:101550002CEA074C07FB06F40CFB06F504EB1546DA
:101560004FEA961634BF00204FF000404FEAD137C3
:1015700006FB07FC4FEA1C4C0CFB0BF7D21B03FBD2
:101580000CF761EB07010CFB0EF7B0EB074072EBB9
:1015900017420CFB08F734BFA2EB0742B2EB07423D
:1015A00061EB17414FEA0C444FEA910706FB07FC39
:1015B0004FEA1C4C0CFB0BF7B0EBC74072EB5732F9
:1015C00003FB0CF734BFA2EBC742B2EBC74261EB9F
:1015D00057310CFB0EF7B0EBC70072EB57720CFBE8
:1015E00008F734BFA2EBC702B2EBC70261EB577139
:1015F000039F4FEA816141EA921104EBCC044FEA68
:10160000D1374FEA826206FB07FC42EA90124FEAAA
:1016100080604FEA1C4C0CFB0BF7D21B03FB0CF752
:1016200061EB07010CFB0EF7B0EB074072EB1742C2
:101630000CFB08F734BFA2EB0742B2EB074261EBA9
:1016400017414FEA8C554FEA910704EB9C2406FBA7
:1016500007FC4FEA1C4C0CFB0BF7B0EBC74072EBDE
:10166000573203FB0CF734BFA2EBC742B2EBC742C1
:1016700061EB57310CFB0EF7B0EBC70072EB577202
:101680000CFB08F734BFA2EBC702B2EBC70261EB59
:10169000577115EB4C254FEA816141EA92114FEAEF
:1016A00082624FEAD13742EA901206FB07FC44F10E
:1016B00000044FEA80604FEA1C4C0CFB0BF7D21B76
:1016C00003FB0CF761EB07010CFB0EF7B0EB0740D7
:1016D00072EB17420CFB08F734BFA2EB0742B2EBE8
:1016E000074261EB174115EB1C154FEA813141EAC6
:1016F00092414FEA823242EA90424FEA80304FEA0A
:101700000C7644F1000448EA03434EEA0B484FF0DC
:10171000000EB2EB080C71EB030724BF624639469A
:101720004EEB0E0E4FF0000B0018524149414BEBAF
:101730000B0BB2EB080C71EB03077BF1000B24BF22
:10174000624639464EEB0E0E4FF0000B0018524128
:1017500049414BEB0B0BB2EB080C71EB03077BF130
:10176000000B24BF624639464EEB0E0E51EA0207CB
:1017700018BF46F0010616EB0E7655F1000254F143
:10178000000103D5BDE88901BDE80088BDE88901F5
:10179000BDE80048B619524141EB0101A3F1010334
:1017A000704780807F7E7D7C7B7A797877767675CE
:1017B0007473727171706F6E6E6D6C6C6B6A6A6946
:1017C0006868676666656464636362616160605FE0
:1017D0005F5E5E5D5D5C5C5B5B5A5A595958585759
:1017E00057565655555554545353525252515150C1
:1017F00050504F4F4F4E4E4D4D4D4C4C4C4B4B4B14
:101800004A4A4A4949494848484747474746464659
:101810004545454444444443434343424242424194
:101820004141002B9C4630D477002BD01CB54FEAA9
:10183000370703B44FF010004FF01001BAF1000F5A
:1018400006D0BCF1000FDCBF40F0080040F00801FA
:101850004FF000000FBCBDE810400BF1010BBBF1D5
:10186000010F08BF5FEA170722BF12F1010211F151
:1018700001014FF0004143F1000300F0004043EA52
:1018800000007047F9D35708D0E746EA064613F13F
:10189000400F4FEA16461FDD13F1200FDFBF16433E
:1018A0000A46002120335B42BED0C3F1200746EA3E
:1018B000064602FA07F74FEA164646EA0706C3F15C
:1018C000200722FA03F201FA07F721FA03F14FF099
:1018D000000342EA0702A7E746EA020646EA06468E
:1018E0004FEA164646EA0106BCBF46EA0646360CF3
:1018F0004FF000034FF000024FF0000194E72DE994
:10190000804C9A46934670B491E8380007C831EA93
:10191000400C48BF34EA430C03D5FFF7E6FDFFF760
:1019200080FFF0BCBDE8008C2DE9804C9A469346C0
:1019300070B491E8380007C810F0804F08BF13F06A
:10194000804F03D100F005F8FFF76BFFF0BCBDE856
:10195000008C20F07F4780EA030023F07F4C07EBE8
:101960000C03A3F57C5300F00040A3F1FE0392F0BA
:10197000000F00F0B38095F0000F00F077802DE9A4
:1019800001494FEA11404FEA144621EA004800FBA2
:1019900006FC24EA064708FB06F607FB08F800FBEE
:1019A00007F718EB06484CEB164C4FEA124B18EBB6
:1019B00007484FEA15464CEB174022EA0B4E0BFB4B
:1019C00006FC25EA06470EFB06F607FB0EFE0BFBA0
:1019D00007F71EEB064E4CEB164C4FF000061EEBC5
:1019E000074E4CEB174B18EB0B0840F1000018EBBF
:1019F0000E0B58EB000840F100008F1A4FF0000169
:101A00003CBFC943661B14BFB5EB040C00213CBFAF
:101A1000C943F61B4FEA17444EEA8E0E27EA0445E7
:101A20004FEA1C4704FB07622CEA074C05FB07F74B
:101A30000CFB05F604FB0CFC16EB074642EB1742C9
:101A400016EB0C4642EB1C421BEB060658EB02025F
:101A5000414146EA9E0601D5BDE80189B6195241C9
:101A600041EB0101A3F10103BDE801894FEA1445EF
:101A70004FEA114724EA054621EA074C05FB07F423
:101A800006FB07F70CFB06F105FB0CFC11EB07410D
:101A900044EB17444FEA124711EB0C4144EB1C4452
:101AA00022EA074C05FB07F206FB07F70CFB06F6DC
:101AB00005FB0CFC16EB074642EB174216EB0C46F7
:101AC00042EB1C456A1854F1000148BF7047B61933
:101AD000524141EB0101A3F10103704795F0000F62
:101AE00037D04FEA11424FEA144721EA024624EA6E
:101AF000074C02FB07F106FB07F70CFB06F402FBA1
:101B00000CFC14EB074441EB17414FEA154714EB6B
:101B10000C4441EB1C4125EA074C02FB07F506FB90
:101B200007F70CFB06F602FB0CFC16EB074645EB31
:101B3000174516EB0C4645EB1C42121951F10001FA
:101B400048BF7047B619524141EB0101A3F10103AF
:101B500070474FEA14454FEA114724EA054621EA47
:101B6000074C05FB07F106FB07F70CFB06F24FF0ED
:101B7000000605FB0CFC12EB074241EB174112EB90
:101B80000C4251EB1C4148BF7047921841EB0101D8
:101B9000A3F10103704700006548016841F00101AD
:101BA000016063481430016841F48071016001688C
:101BB00041F400710160016841F4806101605D4899
:101BC000D0F8041341F00601C0F80413D0F8041350
:101BD00041F40041C0F80413D0F8041341F400515B
:101BE000C0F80413D0F8041321F48071C0F8041372
:101BF000416821F080714160416821F000714160CD
:101C0000816841F001018160D0F8041341F40001C2
:101C1000C0F8041310214163816821F400618160E0
:101C2000816821F0706141F000618160816821F07C
:101C3000405141F080518160C16821F4E01141F4CC
:101C40008021C1603C498A6822F0030242F04002D0
:101C50008A600A6842F00C020A6000224A60D0F8EA
:101C6000041121F08071C0F80411D0F8041121F0A2
:101C70000071C0F80411D0F8081141F00101C0F85A
:101C800008110121C0F83411D0F8081141F0405179
:101C9000C0F80811D0F8081141F07061C0F80811BF
:101CA000D0F8081121F40061C0F80811D0F8101123
:101CB00021F00701491CC0F81011816841F08041F2
:101CC00081601F491D480860091D1E4808601C48A6
:101CD0000838016841F010010160016821F0C0017D
:101CE0000160016841F480710160016821F4803174
:101CF0000160016841F480610160016821F40071B4
:101D00000160016841F480510160016841F4804143
:101D10000160016821F060610160011D0A6842F004
:101D200032020A60016841F0010101607047000061
:101D300030380240002001400000024008230140EA
:101D400018640240BC0000204648016841F00101CF
:101D5000016044481430016841F4806101604248E8
:101D6000D0F8041241F02001C0F80412D0F8041297
:101D700021F08071C0F80412D0F8041221F0007133
:101D8000C0F80412D0F8081241F00101C0F808129E
:101D900001214163D0F8081221F40061C0F8081253
:101DA000D0F8081221F0706141F0C061C0F808124B
:101DB000D0F8081221F0405141F08051C0F80812CB
:101DC000D0F8081241F48071C0F80812D0F8081257
:101DD00041F40071C0F80812D0F80C1221F038015B
:101DE00041F00801C0F80C12D0F8081241F080410F
:101DF000C0F808121E491D480860091D1D480860EA
:101E00001B480838016841F010010160016821F0A9
:101E1000C0010160016841F480710160016841F412
:101E200080310160016841F480610160016821F442
:101E300000710160016841F400610160016841F4D2
:101E400000510160016821F0606141F08061016032
:101E5000011D0A6842F400720A60016841F0010144
:101E60000160704730380240002001404C220140A0
:101E700030640240840100200C49D1F80002800740
:101E800013D50022C1F80022094883790A2B03D117
:101E90000123C37082710281D1F84C12054A837903
:101EA00022F813108179491C81717047002001408C
:101EB00008000020A80000201848016841F0100127
:101EC00001601748816821F4405141F4005181605C
:101ED000016821F040010160C16841F04001C1602A
:101EE000002141600D481430016841F480410160D7
:101EF0000C48016821F4704141F4804101600A48B6
:101F0000016841F00801016007480830016841F0AC
:101F100008010160092000F049BA00003038024091
:101F20000010024008380140003C014006480068AB
:101F3000800608D5044920200831086003480021A4
:101F400001810121017170470064024008000020F6
:101F500007480068000509D505494FF400600831BD
:101F6000086004480021018101214171704700008F
:101F70000064024008000020064810B5016841F4E2
:101F800080010160382000F011FABDE810403920CE
:101F900000F00CBA30380240024908610869002894
:101FA000FCD170470800002003490820086003495D
:101FB0000120887070470000143C01400800002098
:101FC0002548016841F008010160016841F0020103
:101FD0000160016841F0100101601F48083001688C
:101FE00041F0010101601D48016841F004010160F8
:101FF0001B4801681B4A11430160194808380168F1
:10200000194A114301601649184818310860091D22
:10201000174808600107174801624FF0CC31416250
:102020008168154A114381600168144A11430160B7
:1020300090036FF07041C0F804110268104B1A4011
:102040000260026841F259031A430260416041682C
:1020500021F0805141607047303802400004024056
:10206000080C02400FCF3FFC0A8A2AA8CC00CCC043
:10207000CC0CC0CC0010024000C0FFFF0080AAAA18
:10208000FD10F7FF0948016841F0010101600848AF
:10209000816821F4405141F480318160016821F46C
:1020A000405141F4805101607047000030380240D7
:1020B000000002400948016841F001010160084840
:1020C000816821F4404141F480218160016821F45C
:1020D000404141F4804101607047000030380240C7
:1020E000000002400948016841F00201016008480F
:1020F000016821F00C0141F0080101600448083832
:10210000016821F00C01091D016070473038024060
:10211000080402400548C168491CC16001690029E2
:1021200002D00169491E01617047000008000020CB
:102130004FF0E020016921F001010161016941F0E6
:1021400002010161016941F004010161416901F08D
:102150007F4101F524313F314161416901F07F4107
:1021600001F524313F314161016941F00101016113
:1021700070470000324810B5002303603049083131
:102180000B60021D13602F4B1C6824F00704641DB4
:102190001C60036843F00103036003689B07FCD5E0
:1021A000036843F48033036003689B03FCD5036832
:1021B00023F4802303600B6823F003039B1C0B6054
:1021C0000B6823F00C0343F008030B600B680B60F3
:1021D0000B6823F4E05343F4A0530B600B6823F423
:1021E000604343F400430B600B6823F480330B60BF
:1021F000116821F03F01091D1160116847F6C07395
:10220000994341F428511160116821F0706141F047
:1022100080611160116821F480311160116841F40E
:1022200080011160064930310A6842F080020A607C
:10223000016841F08071016001688901FCD510BD21
:1022400000380240003C02400248016841F470013D
:102250000160704788ED00E04FF080400169C907D8
:102260000BD0016921F0010101610748427807495B
:1022700022B180228A610021417070474FF4000230
:102280008A610121F8E700000800002000000240F8
:102290001248016841F0010101600006816821F0E7
:1022A0000701816000210160542181624FF47A713D
:1022B000C162C16841F00101C160016821F01001F3
:1022C0000160416821F0700141F020014160016826
:1022D00041F0010101601C2000F068B84038024064
:1022E0000A480168C9070BD0016821F001010160AB
:1022F00007480278074922B140228A610021017013
:1023000070474FF480028A610121F8E71004004011
:1023100008000020000002401648016841F0020158
:1023200001601548016821F0070101601248002191
:1023300008380160104A42F2D00120321160642155
:10234000121D11600C49091D0A6842F001020A6061
:10235000016821F010010160011D0A6822F070027D
:1023600042F020020A60016841F0010101601D2075
:1023700000F01CB8403802400804004003B4019843
:102380004100009850EAC12018BF04204A0D18BF30
:1023900040F0010040F2FF72B2EB515F08BF40F025
:1023A0000200012808BF052002B07047002809DBA1
:1023B00000F01F02012191404009800000F1E0205F
:1023C000C0F80011704730380A2801D20120704748
:1023D000002070470149022008607047180402403D
:1023E00070B50446DDE90456002006B104200DB1A5
:1023F00040F008000BB140F010000AB140F020009E
:1024000009B140F04000002C01D040F0800070BDC8
:102410002DE9FF4F83462E488A4602885A4555DDEE
:102420004188514552DD00F108018868838813EB2B
:102430000B0F4BD4C08810EB0A0F47D44FF00008A5
:10244000C0F3C70944463BE0002633E0204808308B
:102450008068C28801680298203800FB024202FBB3
:1024600009100025375C380609D50AEB040081B253
:102470000BEB050202EB080080B2039A0CE0039913
:102480000D9888420AD00AEB040081B20BEB0502DA
:1024900002EB080080B20D9A00F08EF878066D1CF1
:1024A000070EEDB2082DDED308F10800761C00F00F
:1024B000FF08F6B24E45C9D3641C4FF00008E4B2E1
:1024C000034808308168C988A142BDD8BDE8FF8FA4
:1024D0002C00002070B51E46044613460D46A1424E
:1024E00001D20C4685B20A480188481EA94200D88C
:1024F00085B2A14200D884B22A461946204600F08F
:1025000099FA044801E00680641CAC42FBDD70BD12
:102510002C000020000008602DE9F04F0C46064614
:102520001546191BA2EB060000D54942002800DA27
:102530004042814207DD304626461D464FF00108E5
:102540000446134601E04FF00008AE4205DD304678
:102550002E46054620461C460346A81B0FFA80F966
:10256000181B00D540420FFA80FB09EBD9704710C9
:102570009C4201DA012001E04FF0FF30824617E073
:10258000B8F1000F02D0B1B2A0B201E0A1B2B0B276
:10259000099A00F011F8A7EB0B0007B2002F05DA3B
:1025A00004EB0A0004B207EB090007B2761C36B24E
:1025B000AE42E5DDBDE8F08F10B51446064A13883B
:1025C000834208D952888A4205D90B46024600F058
:1025D00031FA0248048010BD2C0000200000086081
:1025E00070B50C461E461546A24201D214468DB265
:1025F0000C490A88824201D8521E90B24A88511E64
:10260000A24200D88CB2AA4200D88DB22B46024614
:10261000214600F00FFA044801E00680641CAC4239
:10262000FBDD70BD2C0000200000086030B50A4DB5
:10263000044600216888401E83B22888401E82B26A
:10264000084600F0F7F9288869884843034900E004
:102650000C80401EFCD230BD2C0000200000086021
:102660002DE9F84F002490468A4681462646C6EB5F
:10267000C60000EB8000002500EB090705EBC50054
:1026800000EB051101EB0A0081B2B8B2424600F03E
:10269000EFF9382C12D204EB840B0BEB090080B25B
:1026A00043467A227621FFF79BFF282C06D20BF1B6
:1026B00014024346A2219E20FFF70CFF641C6D1CF0
:1026C000EDB2E4B2082DD9D3761CF6B2082ECED3E3
:1026D0004346E62237211420FFF7FCFE4346E92259
:1026E000DC211420FFF77CFF4346E922DC21372060
:1026F000FFF776FFE9231D22E6211420CDF80080A4
:10270000FFF70AFFE3231D22E6211420CDF8008005
:10271000FFF702FFE9232E22E6213720CDF80080C3
:10272000FFF7FAFEE3232E22E6213720CDF80080C2
:10273000FFF7F2FEBDE8F88F2DE9FC4100250126E8
:10274000CDE900652B462A4631462846FFF748FE6C
:102750006E4F002301223870CDE9006519461046FE
:10276000FFF73EFE78700023CDE900651A46194652
:102770000120FFF735FEB8700122CDE90065002386
:1027800011461046FFF72CFE4FF0C044F87026802B
:102790003220FFF701FC28202080CF2020805C48D9
:1027A00005808321018030210180ED212180642179
:1027B0000180032101801221018081210180E82113
:1027C000218085210180068079210180CB21218013
:1027D000392101802C2101800580342101800221D2
:1027E0000180F721218020210180EA2121800580BC
:1027F0000580C021218026210180C1212180112155
:102800000180C5212180352101803E210180C72121
:102810002180BE21018036212180397801803A2132
:10282000218055210180B121218005801B2101805B
:10283000F221218008210180262121800680E021CB
:1028400021801F2101801A210180182101800A2185
:1028500001800F210180062101804521018087210F
:102860000180322101800A2101800721018002219B
:10287000018007210180052101800580E12121805F
:10288000058025210180272101800521018010215B
:102890000180092101803A210180782101804D21A8
:1028A000018005210180182101800D21018038213E
:1028B00001803A2101801F2101802A212180058089
:1028C00005800580EF2101802B2121800580058076
:1028D00006803F210180B721218007210180B62198
:1028E00021800A2101808221018027210180058029
:1028F000112020806420FFF74FFB292020806420D6
:10290000FFF74AFB2C202080BDE8FC81240000203A
:10291000000008600FB428482DE9F84309AA089977
:10292000FDF7F8FCDFF894800026A8F10807224D97
:102930003C1F2BE00A2A30D00D2A21D0092A32D0A0
:10294000B8F8040080B20090B8F80000B4F90210A2
:1029500083B2B4F90000FFF75BFDD8F808102288B5
:102960008888024492B2228098F80C3043B13B88A8
:10297000181A904204DA6088C9880844608026806A
:10298000608879886D1C884200D366802A78002A86
:10299000D0D1BDE8F8035DF814FBD8F808006188D1
:1029A000C0880844EAE7D8F808002188808801EB4D
:1029B00080002080E4E7000084050020340000202F
:1029C000034A0B4610805180024600F033B80000E5
:1029D00028000020154930B43622130708711A80E8
:1029E000134BA1F10802F0244FF4A07530B1012877
:1029F0000BD0022804D003280DD108E0107800E0A5
:102A0000907818800C804D8005E0507800E0D078F8
:102A100018800D804C804888401E83B2088830BCE6
:102A2000401E82B20021084600F004B82C000020AD
:102A30000000086070B54FF0C0452A242C800B4C74
:102A4000060A2680C0B22080100A2080D0B22080E2
:102A50002B202880080A2080C8B22080180A2080F5
:102A6000D8B220802C20288070BD000000000860B3
:102A70002DE9F041904601F119050C460746AAB22E
:102A80004346FFF7ADFD07F12306AAB2B0B24346B5
:102A90002146FFF7A5FDB1B2434622463846FFF76F
:102AA00019FDAAB2B1B243463846BDE8F041FFF77E
:102AB00011BD00002DED028BFFF75CFBFFF738FB2B
:102AC000FFF7E0FAFFF7F6FAFFF70CFBFFF782FCDF
:102AD000FFF776FAFFF730FE0320FFF77BFF0020B9
:102AE000FFF7A4FD14214FF6FF720846FFF7B8FD6B
:102AF000FFF712FCFFF7CCFBFFF7DEF9FFF73CFA1C
:102B0000FFF722F9FFF748F805214B20FFF758FFA0
:102B10009FED288B29A053EC182BFFF7FBFE052116
:102B2000D720FFF74DFF53EC182B27A0FFF7F2FE3D
:102B3000E1214120FFF744FF53EC182B25A0FFF7BC
:102B4000E9FE274A274910780128FCD1002010709F
:102B5000254B264C53F820500E8835440D8053F8F1
:102B600020502D0C24F81050401CC0B23228F1D354
:102B700008883223B0FBF3F008800888DFED1C0AD8
:102B800000EE100A1B48B0EE041AB8EE400A20EE20
:102B9000200ADFED190A80ED000A90ED000A30EE00
:102BA000600AC0EE010AB3EE090A30EE800A80ED39
:102BB000010AC8E7000000403333F33F25302E32CE
:102BC0006620487A0000000025302E32662056200C
:102BD0000000000025302E32662073200000000027
:102BE0000C00002010000020BC0000204400002049
:102BF000D74C4E3F0000002000003E4410B5002995
:102C00000AD00878002807D005487844FEF7B4FBBE
:102C1000002801D0002010BD0248784410BD0000FB
:102C2000EE050000E605000010B500290AD008787E
:102C3000002807D005487844FEF79EFB002801D005
:102C4000002010BD0248784410BD0000DE050000E1
:102C5000D60500004FF04070E1EE100A7047FDF716
:102C600098BFFEF7CDB80000000000000000000093
:102C70000000001010101010000010000000006C88
:102C800048480000000000000000001414287C28C0
:102C90007C28505000000010384040384870101018
:102CA0000000002050200C700814080000000000F4
:102CB00000182020544834000000001010101000AC
:102CC000000000000000000808101010101010088C
:102CD00008000020201010101010102020000010FC
:102CE0007C1028280000000000000000101010FEDA
:102CF000101010000000000000000000001810304C
:102D0000200000000000007C000000000000000027
:102D1000000000000030300000000004040808102B
:102D2000102020400000003844444444444438000B
:102D3000000000301010101010107C00000000384F
:102D40004404081020447C000000003844041804A7
:102D5000044438000000000C141424447E040E00C7
:102D60000000003C20203804044438000000001C0F
:102D700020407844444438000000007C44040808A3
:102D8000081010000000003844443844444438001F
:102D9000000000384444443C040870000000000077
:102DA0000030300000303000000000000018180033
:102DB00000183020000000000C10608060100C0033
:102DC0000000000000007C007C000000000000000B
:102DD000C02018041820C0000000000018240408B7
:102DE0001000300000003844444C54544C404438E7
:102DF00000000030102828287C44EE00000000F875
:102E0000444478444444F8000000003C44404040BE
:102E100040443800000000F0484444444448F00076
:102E2000000000FC445070504044FC000000007E54
:102E300022283828202070000000003C4440404EEA
:102E400044443800000000EE44447C444444EE0016
:102E50000000007C1010101010107C000000003CDE
:102E60000808084848483000000000EE4448507008
:102E70004844E600000000702020202024247C002C
:102E8000000000EE6C6C54544444EE00000000EE70
:102E900064645454544CEC000000003844444444EE
:102EA0004444380000000078242424382020700096
:102EB00000000038444444444444381C000000F8F6
:102EC000444444784844E200000000344C40380454
:102ED00004645800000000FE92101010101038001A
:102EE000000000EE4444444444443800000000EE36
:102EF0004444282828101000000000EE4444545494
:102F000054542800000000C6442810102844C6006D
:102F1000000000EE44282810101038000000007C4B
:102F20004408101020447C0000000038202020209D
:102F30002020202038000040202020101008080801
:102F400000000038080808080808080838000010C1
:102F500010284400000000000000000000000000F5
:102F60000000000000FE001008000000000000004B
:102F7000000000000038443C44443E00000000C013
:102F8000405864444444F80000000000003C4440C1
:102F9000404438000000000C04344C4444443E00DB
:102FA000000000000038447C40403C000000001C51
:102FB000207C202020207C000000000000364C44B3
:102FC00044443C04380000C0405864444444EE008B
:102FD000000000100070101010107C0000000010A5
:102FE0000078080808080808700000C0405C4870B5
:102FF0005048DC00000000301010101010107C0051
:103000000000000000E854545454FE00000000008A
:1030100000D864444444EE000000000000384444FA
:10302000444438000000000000D864444444784020
:10303000E000000000364C4444443C040E00000014
:10304000006C302020207C0000000000003C443850
:103050000444780000000000207C202020221C0076
:103060000000000000CC4444444C36000000000046
:1030700000EE4444282810000000000000EE4454F4
:10308000545428000000000000CC48303048CC00E8
:103090000000000000EE4424281810107800000002
:1030A000007C481020447C00000000081010101024
:1030B0002010101008000010101010101010101028
:1030C0000000002010101010081010102000000048
:1030D0000000002458000000000000000000000074
:1030E0000000000030313233343536373839414250
:1030F000434445464030580030313233343536375A
:103100003839616263646566403078000400000805
:103110000000000000000002000100001030313209
:1031200033343536373839616263646566787000E8
:1031300030313233343536373839414243444546ED
:103140005850000002400000000000A000000000F5
:1031500005400000000000C8000000000C40000016
:103160000000409C00000000194000000020BCBE90
:103170000000000034400000BFC91B8E00000004A6
:10318000B5400000504BCFD06607E2CF01000000F1
:103190006C4100003E8251AADFEEA734010000001E
:1031A000D9420000DCB5A0E23A301F97FFFFFFFFD5
:1031B000B4450000FD25A0C8E9A3C14FFFFFFFFFF4
:1031C000FF3F00000000008000000000FF3F000003
:1031D00000000080000000002433000800000020F0
:1031E00044000000C40100086833000844000020C7
:1031F000A40C0000E00100081C00000043000000D7
:10320000F8FFFFFF0C0000000E0000000F000000A0
:103210002E0000001001000043000000F8FFFFFF37
:1032200000404040404040404040414141414140D9
:10323000404040404040404040404040404040408E
:10324000400502020202020202020202020202021D
:103250000220202020202020202020020202020222
:10326000020290909090909010101010101010107A
:103270001010101010101010101010100202020286
:1032800002028888888888880808080808080808CA
:1032900008080808080808080808080802020202C6
:1032A00040000000000000000000000000000000DE
:1032B000000000000000000000000000000000000E
:1032C00000000000000000000000000000000000FE
:1032D00000000000000000000000000000000000EE
:1032E00000000000000000000000000000000000DE
:1032F00000000000000000000000000000000000CE
:1033000000000000000000000000000000000000BD
:1033100000000000000000000000000000000000AD
:10332000000000000000000000000000000000009D
:10333000000000000000000000000000000000008D
:10334000662C000807000C000000000000000000D0
:10335000F000400100010100E0FF0000000000005B
:083360001C0000200100000028
:040000050800018965
:00000001FF
