:020000040800F2
:10000000E80B002029020008310200083302000832
:10001000350200083702000839020008000000001D
:100020000000000000000000000000003B0200088B
:100030003D020008000000003F02000861080008BF
:10004000430200084302000843020008430200087C
:10005000430200084302000843020008430200086C
:1000600043020008F50600084302000843020008A6
:10007000430200084302000843020008430200084C
:100080004302000843020008C505000843020008B7
:10009000430200084302000843020008430200082C
:1000A000430200084302000843020008430200081C
:1000B000A50900082D0A00084302000843020008B1
:1000C00043020008430200084302000843020008FC
:1000D00043020008430200084302000843020008EC
:1000E00043020008430200084302000843020008DC
:1000F00043020008430200084302000843020008CC
:1001000043020008430200084302000843020008BB
:1001100043020008430200084302000843020008AB
:10012000790600089D060008430200084302000803
:10013000430200084302000843020008430200088B
:10014000430200084302000843020008430200087B
:10015000430200084302000843020008430200086B
:10016000430200084302000843020008430200085B
:100170004302000843020008430200080000000098
:10018000430200084302000800F002F800F03CF8C7
:100190000AA090E8000C82448344AAF10107DA45E2
:1001A00001D100F031F8AFF2090EBAE80F0013F0F8
:1001B000010F18BFFB1A43F001031847401200005B
:1001C00060120000103A24BF78C878C1FAD85207EC
:1001D00024BF30C830C144BF04680C6070470000C1
:1001E0000023002400250026103A28BF78C1FBD840
:1001F000520728BF30C148BF0B6070471FB500F0E1
:10020000BDFE1FBD10B510BD00F031F81146FFF75F
:10021000F5FF00F047FE00F04FF803B4FFF7F2FFE0
:1002200003BC00F057F80000094880470948004720
:10023000FEE7FEE7FEE7FEE7FEE7FEE7FEE7FEE796
:10024000FEE7FEE704480549054A064B70470000F3
:100250009509000889010008E8050020E80B002046
:10026000E8070020E8070020704770477047754690
:1002700000F02CF8AE4605006946534620F0070012
:10028000854618B020B5FFF7DDFFBDE820404FF0F0
:1002900000064FF000074FF000084FF0000B21F070
:1002A0000701AC46ACE8C009ACE8C009ACE8C0093D
:1002B000ACE8C0098D46704710B50446AFF3008026
:1002C0002046BDE81040FFF7A8BF00000048704777
:1002D0008405002001491820ABBEFEE7260002007D
:1002E000704700006548016841F001010160634802
:1002F0001430016841F480710160016841F40071BB
:100300000160016841F4806101605D48D0F8041328
:1003100041F00601C0F80413D0F8041341F4004181
:10032000C0F80413D0F8041341F40051C0F80413CA
:10033000D0F8041321F48071C0F80413416821F04F
:1003400080714160416821F000714160816841F035
:1003500001018160D0F8041341F40001C0F80413D6
:1003600010214163816821F400618160816821F07E
:10037000706141F000618160816821F0405141F07D
:1003800080518160C16821F4E01141F48021C16095
:100390003C498A6822F0030242F040028A600A68FF
:1003A00042F00C020A6000224A60D0F8041121F0E9
:1003B0008071C0F80411D0F8041121F00071C0F868
:1003C0000411D0F8081141F00101C0F80811012111
:1003D000C0F83411D0F8081141F04051C0F80811AC
:1003E000D0F8081141F07061C0F80811D0F8081178
:1003F00021F40061C0F80811D0F8101121F00701B4
:10040000491CC0F81011816841F0804181601F498A
:100410001D480860091D1E4808601C48083801680E
:1004200041F010010160016821F0C0010160016824
:1004300041F480710160016821F48031016001683C
:1004400041F480610160016821F40071016001687C
:1004500041F480510160016841F48041016001680C
:1004600021F060610160011D0A6842F032020A60F9
:10047000016841F00101016070470000303802401E
:10048000002001400000024008230140186402409F
:10049000BC0000204648016841F001010160444869
:1004A0001430016841F4806101604248D0F80412C0
:1004B00041F02001C0F80412D0F8041221F080713C
:1004C000C0F80412D0F8041221F00071C0F8041230
:1004D000D0F8081241F00101C0F80812012141636F
:1004E000D0F8081221F40061C0F80812D0F8081200
:1004F00021F0706141F0C061C0F80812D0F8081214
:1005000021F0405141F08051C0F80812D0F8081293
:1005100041F48071C0F80812D0F8081241F400715B
:10052000C0F80812D0F80C1221F0380141F008018F
:10053000C0F80C12D0F8081241F08041C0F808123F
:100540001E491D480860091D1D4808601B480838E1
:10055000016841F010010160016821F0C0010160F3
:10056000016841F480710160016841F480310160EB
:10057000016841F480610160016821F4007101604B
:10058000016841F400610160016841F400510160BB
:10059000016821F0606141F080610160011D0A681D
:1005A00042F400720A60016841F001010160704785
:1005B00030380240002001404C22014030640240AB
:1005C000840100200C49D1F80002800713D50022D5
:1005D000C1F80022094883790A2B03D10123C37093
:1005E00082710281D1F84C12054A837922F81310E6
:1005F0008179491C8171704700200140080000206A
:10060000A80000201848016841F010010160174857
:10061000816821F4405141F400518160016821F06A
:1006200040010160C16841F04001C16000214160AA
:100630000D481430016841F4804101600C480168A4
:1006400021F4704141F4804101600A48016841F0A1
:100650000801016007480830016841F008010160A5
:10066000092000F031BA000030380240001002408A
:1006700008380140003C014006480068800608D563
:10068000044920200831086003480021018101212C
:1006900001717047006402400800002007480068AC
:1006A000000509D505494FF4006008310860044889
:1006B0000021018101214171704700000064024066
:1006C00008000020064810B5016841F4800101606F
:1006D000382000F0F9F9BDE81040392000F0F4B9F5
:1006E000303802400249086108690028FCD170478F
:1006F0000800002003490820086003490120887091
:1007000070470000143C01400800002025480168A3
:1007100041F008010160016841F0020101600168D7
:1007200041F0100101601F480830016841F00101EB
:1007300001601D48016841F0040101601B48016827
:100740001B4A11430160194808380168194A1143CE
:1007500001601649184818310860091D17480860DB
:100760000107174801624FF0CC3141628168154A98
:10077000114381600168144A1143016090036FF0D6
:100780007041C0F804110268104B1A400260026800
:1007900041F259031A4302604160416821F08051DF
:1007A000416070473038024000040240080C0240AB
:1007B0000FCF3FFC0A8A2AA8CC00CCC0CC0CC0CCFE
:1007C0000010024000C0FFFF0080AAAAFD10F7FF42
:1007D0000948016841F0010101600848816821F47D
:1007E000405141F480318160016821F4405141F46D
:1007F0008051016070470000303802400000024024
:100800000948016841F0010101600848816821F44C
:10081000404141F480218160016821F4404141F46C
:100820008041016070470000303802400000024003
:100830000948016841F0020101600848016821F09F
:100840000C0141F00801016004480838016821F0FA
:100850000C01091D01607047303802400804024055
:100860000548C168491CC1600169002902D00169BD
:10087000491E016170470000080000204FF0E02091
:10088000016921F001010161016941F00201016189
:10089000016941F004010161416901F07F4101F505
:1008A00024313F314161416901F07F4101F524313B
:1008B0003F314161016941F0010101617047000070
:1008C000324810B500230360304908310B60021D27
:1008D00013602F4B1C6824F00704641D1C60036820
:1008E00043F00103036003689B07FCD5036843F4EE
:1008F0008033036003689B03FCD5036823F48023E3
:1009000003600B6823F003039B1C0B600B6823F050
:100910000C0343F008030B600B680B600B6823F4B7
:10092000E05343F4A0530B600B6823F4604343F49B
:1009300000430B600B6823F480330B60116821F0D7
:100940003F01091D1160116847F6C073994341F4D6
:1009500028511160116821F0706141F080611160CF
:10096000116821F480311160116841F48001116037
:10097000064930310A6842F080020A60016841F09D
:100980008071016001688901FCD510BD003802400A
:10099000003C02400248016841F470010160704768
:1009A00088ED00E04FF080400169C9070BD0016974
:1009B00021F00101016107484278074922B18022F4
:1009C0008A610021417070474FF400028A61012161
:1009D000F8E700000800002000000240124801680B
:1009E00041F0010101600006816821F0070181608A
:1009F00000210160542181624FF47A71C162C168A3
:100A000041F00101C160016821F0100101604168FD
:100A100021F0700141F020014160016841F00101C5
:100A200001601C2000F050B8403802400A480168BC
:100A3000C9070BD0016821F0010101600748027865
:100A4000074922B140228A610021017070474FF4AA
:100A500080028A610121F8E71004004008000020AC
:100A6000000002401648016841F00201016015488B
:100A7000016821F007010160124800210838016077
:100A8000104A42F2D001203211606421121D11601F
:100A90000C49091D0A6842F001020A60016821F050
:100AA00010010160011D0A6822F0700242F020026C
:100AB0000A60016841F0010101601D2000F004B8E6
:100AC0004038024008040040002809DB00F01F0203
:100AD000012191404009800000F1E020C0F80011A0
:100AE0007047000001490220086070471804024066
:100AF00070B50446DDE90456002006B104200DB1AE
:100B000040F008000BB140F010000AB140F02000A6
:100B100009B140F04000002C01D040F0800070BDD1
:100B200030B50A4D044600216888401E83B22888EB
:100B3000401E82B2084600F02BF928886988484395
:100B4000034900E00C80401EFCD230BD2C00002088
:100B5000000008602DE9FC4100250126CDE9006573
:100B60002B462A4631462846FFF7C2FF6E4F002328
:100B700001223870CDE9006519461046FFF7B8FF2D
:100B800078700023CDE900651A4619460120FFF769
:100B9000AFFFB8700122CDE9006500231146104671
:100BA000FFF7A6FF4FF0C044F87026803220FFF711
:100BB00099FD28202080CF2020805C48058083215B
:100BC000018030210180ED212180642101800321F9
:100BD00001801221018081210180E821218085216D
:100BE0000180068079210180CB212180392101807B
:100BF0002C21018005803421018002210180F72110
:100C0000218020210180EA21218005800580C021EA
:100C1000218026210180C121218011210180C5214F
:100C20002180352101803E210180C7212180BE2104
:100C3000018036212180397801803A212180552197
:100C40000180B121218005801B210180F2212180BA
:100C500008210180262121800680E02121801F219A
:100C600001801A210180182101800A2101800F21B1
:100C700001800621018045210180872101803221E8
:100C800001800A21018007210180022101800721C2
:100C90000180052101800580E12121800580252139
:100CA0000180272101800521018010210180092177
:100CB00001803A210180782101804D2101800521A8
:100CC0000180182101800D210180382101803A2105
:100CD00001801F2101802A21218005800580058057
:100CE000EF2101802B2121800580058006803F2196
:100CF0000180B721218007210180B62121800A21AE
:100D0000018082210180272101800580112020801F
:100D10006420FFF7E7FC292020806420FFF7E2FC35
:100D20002C202080BDE8FC81240000200000086009
:100D3000154930B43622130708711A80134BA1F1FC
:100D40000802F0244FF4A07530B101280BD002281E
:100D500004D003280DD108E0107800E090781880C6
:100D60000C804D8005E0507800E0D07818800D8030
:100D70004C804888401E83B2088830BC401E82B236
:100D80000021084600F004B82C0000200000086094
:100D900070B54FF0C0452A242C800B4C060A2680E3
:100DA000C0B22080100A2080D0B220802B20288062
:100DB000080A2080C8B22080180A2080D8B220807B
:100DC0002C20288070BD0000000008602DE9F04351
:100DD000324C00216088401E83B22088401E82B2BF
:100DE0000846FFF7D5FF61880020C1F3C702461E01
:100DF0002B4D4EE00023278848E000BFA1EB020CFA
:100E0000ACF1010C844502DA4FF6FF7C3BE0C2F105
:100E1000000C06EB4C088844804502DA4FF01F0CAA
:100E200031E0A2EB8209A9F101088844804502DA89
:100E30004FF4FC6C27E006EB8C0C8C44844502DA02
:100E400040F2FF7C1FE0C2F1000C0CEB8C0CACF10B
:100E5000010C8C44844502DA4FF4784C13E006EB25
:100E6000490C8C44844502DA4FF61F0C0BE0A2EBD0
:100E7000C20CACF1010C8C44844502DA4FF6E07CE4
:100E800001E04FF0000CA5F800C05B1C9F42B5DCF0
:100E9000401C8142AEDCBDE8F08300002C00002045
:100EA00000000860FFF70CFDFFF7E8FCFFF790FC7F
:100EB000FFF7A6FCFFF7BCFCFFF714FEFFF726FCCC
:100EC000FFF748FE0120FFF733FF4FF6FF70FFF7F3
:100ED00027FEFFF7C7FDFFF781FDFFF793FBFFF745
:100EE000F1FBFFF7D7FAFFF7FDF9FFF76FFF1C4A99
:100EF0001C4910780128FCD1002010701A4B1B4CA3
:100F000053F820500E8835440D8053F820502D0C96
:100F100024F81050401CC0B23228F1D30888322384
:100F2000B0FBF3F008800888DFED110A00EE100A2C
:100F30001048B8EE400A20EE200ADFED0F0A80EDDF
:100F4000000A90ED000A30EE600AF0EE040A80EE2E
:100F5000201AB3EE090A31EE000A80ED010AC8E753
:100F60000C00002010000020BC00002044000020E5
:100F7000D74C4E3F0000002000003E444FF0407030
:100F8000E1EE100A704700000000000000000000C1
:100F90000000001010101010000010000000006C85
:100FA00048480000000000000000001414287C28BD
:100FB0007C28505000000010384040384870101015
:100FC0000000002050200C700814080000000000F1
:100FD00000182020544834000000001010101000A9
:100FE0000000000000000008081010101010100889
:100FF00008000020201010101010102020000010F9
:101000007C1028280000000000000000101010FED6
:101010001010100000000000000000000018103048
:10102000200000000000007C000000000000000024
:101030000000000000303000000000040408081028
:101040001020204000000038444444444444380008
:10105000000000301010101010107C00000000384C
:101060004404081020447C000000003844041804A4
:10107000044438000000000C141424447E040E00C4
:101080000000003C20203804044438000000001C0C
:1010900020407844444438000000007C44040808A0
:1010A000081010000000003844443844444438001C
:1010B000000000384444443C040870000000000074
:1010C0000030300000303000000000000018180030
:1010D00000183020000000000C10608060100C0030
:1010E0000000000000007C007C0000000000000008
:1010F000C02018041820C0000000000018240408B4
:101100001000300000003844444C54544C404438E3
:1011100000000030102828287C44EE00000000F871
:10112000444478444444F8000000003C44404040BB
:1011300040443800000000F0484444444448F00073
:10114000000000FC445070504044FC000000007E51
:1011500022283828202070000000003C4440404EE7
:1011600044443800000000EE44447C444444EE0013
:101170000000007C1010101010107C000000003CDB
:101180000808084848483000000000EE4448507005
:101190004844E600000000702020202024247C0029
:1011A000000000EE6C6C54544444EE00000000EE6D
:1011B00064645454544CEC000000003844444444EB
:1011C0004444380000000078242424382020700093
:1011D00000000038444444444444381C000000F8F3
:1011E000444444784844E200000000344C40380451
:1011F00004645800000000FE921010101010380017
:10120000000000EE4444444444443800000000EE32
:101210004444282828101000000000EE4444545490
:1012200054542800000000C6442810102844C6006A
:10123000000000EE44282810101038000000007C48
:101240004408101020447C0000000038202020209A
:1012500020202020380000402020201010080808FE
:1012600000000038080808080808080838000010BE
:1012700010284400000000000000000000000000F2
:101280000000000000FE0010080000000000000048
:10129000000000000038443C44443E00000000C010
:1012A000405864444444F80000000000003C4440BE
:1012B000404438000000000C04344C4444443E00D8
:1012C000000000000038447C40403C000000001C4E
:1012D000207C202020207C000000000000364C44B0
:1012E00044443C04380000C0405864444444EE0088
:1012F000000000100070101010107C0000000010A2
:101300000078080808080808700000C0405C4870B1
:101310005048DC00000000301010101010107C004D
:101320000000000000E854545454FE000000000087
:1013300000D864444444EE000000000000384444F7
:10134000444438000000000000D86444444478401D
:10135000E000000000364C4444443C040E00000011
:10136000006C302020207C0000000000003C44384D
:101370000444780000000000207C202020221C0073
:101380000000000000CC4444444C36000000000043
:1013900000EE4444282810000000000000EE4454F1
:1013A000545428000000000000CC48303048CC00E5
:1013B0000000000000EE44242818101078000000FF
:1013C000007C481020447C00000000081010101021
:1013D0002010101008000010101010101010101025
:1013E0000000002010101010081010102000000045
:1013F0000000002458000000000000001C14000839
:101400000000002044000000C4010008601400082F
:1014100044000020A40B0000E001000800000000D0
:1014200000000000000000000000000000000000BC
:101430000000000000000000860F000807000C00FC
:101440000000000000000000F00040010001010069
:10145000E0FF0000000000001C0000200100000070
:040000050800018965
:00000001FF
