:020000040800F2
:10000000B822002061020008690200086B020008A3
:100010006D0200086F020008710200080000000075
:100020000000000000000000000000007302000853
:10003000750200080000000077020008111C00088B
:100040007B0200087B0200087B0200087B0200089C
:100050007B0200087B0200087B0200087B0200088C
:100060007B0200087D1A00087B0200087B02000862
:100070007B0200087B0200087B0200087B0200086C
:100080007B0200087B020008511900087B0200086F
:100090007B0200087B0200087B0200087B0200084C
:1000A0007B0200087B0200087B0200087B0200083C
:1000B000551D0008DD1D0008791E00087B020008A0
:1000C0007B0200087B0200087B0200087B0200081C
:1000D0007B0200087B0200087B0200087B0200080C
:1000E0007B0200087B0200087B0200087B020008FC
:1000F0007B0200087B0200087B0200087B020008EC
:100100007B0200087B0200087B0200087B020008DB
:100110007B0200087B0200087B0200087B020008CB
:10012000051A0008291A00087B0200087B02000853
:100130007B0200087B0200087B0200087B020008AB
:100140007B0200087B0200087B0200087B0200089B
:100150007B0200087B0200087B0200087B0200088B
:100160007B0200087B0200087B0200087B0200087B
:100170007B0200087B0200087B02000800000000F0
:100180007B0200087B0200084B1C012B98BF7047C4
:100190002DE9F003911C9B08B1F80480B1F802909E
:1001A0000A8831F802CC8044814402448444D9F85E
:1001B0000070D8F800601568DCF80040C9F80060ED
:1001C000C8F80070CCF800501460D9F80470D8F862
:1001D00004605568DCF80440C9F80460C8F804708D
:1001E000CCF80450546008315B1ED5D1BDE8F00353
:1001F00070474B1C012B98BF70472DE9F003911CF1
:100200009B08B1F80480B1F802900A8831F802CC5A
:1002100000EB580800EB590900EB520200EB5C0CB4
:10022000D9F80070D8F800601568DCF80040C9F80B
:100230000060C8F80070CCF80050146008315B1EF4
:10024000DFD1BDE8F0037047DFF810D001F060F9AE
:1002500000480047D5310008AFF30080B8220020E5
:100260000648804706480047FEE7FEE7FEE7FEE750
:10027000FEE7FEE7FEE7FEE7FEE7FEE7451D0008B6
:100280004902000830B493084FF000052AD000BF9F
:1002900030F902CB30F9024BBCF1000FDCBFD5FACC
:1002A0001CFC0FFA8CFC002CDCBFD5FA14F424B231
:1002B000CCEA044C41F804CB30F902CB30F9024BC4
:1002C000BCF1000FDCBFD5FA1CFC0FFA8CFC002C33
:1002D000DCBFD5FA14F424B2CCEA044C41F804CBC8
:1002E0005B1ED5D112F0030204BF30BC704700BFC3
:1002F00030F9023B002BDCBFD5FA13F31BB221F817
:10030000023B521EF4D130BC7047000010B4284CA0
:1003100089B2C460016004F58044046102714FF049
:10032000000C4371B1F5007F2BD009DC202939D0B6
:10033000402932D080292CD0B1F5807F25D00BE028
:10034000B1F5806F19D0B1F5006F12D0B1F5805FB3
:100350000BD0B1F5005F04D04FF0FF3C10BC6046FD
:1003600070470121816013491AE00221816012491E
:1003700016E004218160114912E0082181601049D2
:100380000EE0102181600F490AE0202181600E49B2
:1003900006E0402181600D4902E0802181600C4926
:1003A0004161DBE74FF4807181600A494161D5E723
:1003B000863A000808BB0008F8BA0008E8BA000846
:1003C000D8BA0008C8BA0008B8BA0008A8BA000825
:1003D00098BA000888BA00082DE9FF4FDDE90DEC56
:1003E00000980199051D00EB810002EB8C0403EBE2
:1003F0008C06031F0EEBC101019A091F0EF10400C8
:10040000521E21D055F8048BD4F800B048FB0BFAEB
:1004100053F80479D6F8009027FB09AA4FEA1A4A44
:1004200047FB19F728FB1B7720F802AB3F1420F895
:10043000027B21F802AB7F4221F8067906EB8C069D
:1004400004EB8C04521EDDD10098B0F90010B0F915
:100450000200081A411001982EF82010019900207E
:100460000EEB810148800099B1F90020B1F902102A
:1004700011444910AEF80010AEF8020004B0BDE817
:10048000F08F2DE9F00700EB8104DDE907C60029B4
:1004900004BFBDE8F007704754F804A9D3F80090F2
:1004A0004AFB09F750F8048B156828FB05773F0CC9
:1004B0002AFB19F9C9F1000945FB18956FF30F05DF
:1004C000C7EA05054CF8045B03EB860302EB8602E2
:1004D000491EE1D1BDE8F00770472DE9F74F82B022
:1004E0000E4602990298096840694F0802990A79F4
:1004F000012A5CD04B79314600F0A6F9CDE90067BE
:100500000298029ADDF810E0D0E90310926806F133
:10051000040C00EB820401EB820506EB8700061F4A
:100520000EEBC701091F0EF104007B1E22D000BF95
:100530005CF8048BD5F800B048FB0BFA56F8047948
:10054000D4F8009027FB09AA4FEA1A4A47FB19F78B
:1005500028FB1B7720F802AB3F1420F8027B21F820
:1005600002AB7F4221F8067904EB820405EB820599
:100570005B1EDDD10098B0F90010B0F90200081A36
:10058000411001982EF82010019900200EEB8101F6
:1005900048800099B1F90020B1F9021011444910C6
:1005A000AEF80010AEF8020005B0BDE8F08FD1E95A
:1005B00003C3049A8C6806EB8701FFB151F80499D4
:1005C000D3F8008049FB08FA56F8045BDCF800B069
:1005D00025FB0BAA4FEA1A4A29FB18F8C8F10008B4
:1005E0004BFB15856FF30F05CAEA050542F8045B5E
:1005F00003EB84030CEB840C7F1EDFD102994B7953
:100600000A79049900F020F902980168002904BFD2
:1006100005B0BDE8F08F0498801E11F0010F03D0E3
:1006200030F8021F4900018002990968490804BF97
:1006300005B0BDE8F08F00BF30F8022F520020F85F
:10064000022B028852000280491EF5D105B0BDE898
:10065000F08F00002DE9F003002430F902CBA1F166
:10066000010825465FEA98061BD000BF30F9027BDF
:1006700030F9029BBC45BCBFBC46651CCC45BCBF29
:10068000CC46A51C30F9027B30F9029BBC45BCBFAF
:10069000BC46E51CCC45BCBFCC46251D241D761EA2
:1006A000E4D118F0030413D02646B4F1004F15D25C
:1006B000002CC8BF00270BDDB0F90080E04502DD4B
:1006C000CD19C4462D1B801C761E07F10107F3D1FE
:1006D000A2F800C01D60BDE8F003704730F9026B5E
:1006E000B445BCBFB4460D1B641EF7D1F0E7000053
:1006F0002DE9F74F07468A4607EB4A0602985FEA5C
:1007000051083C46B146454618BF4FF0000B18D083
:1007100050F8042B216891FA2BF3316891FA2BFCE5
:10072000D3FA1CF193FA2CF344F8043B22FB01F3B7
:100730001B0C42FB11F1C3EA010146F8041B6D1EBC
:10074000E6D1022341463846029A00F075F9484640
:1007500002234146029A00F06FF95FEA5A0004BF93
:1007600003B0BDE8F08F00BF37F8020B420037F846
:10077000020B410037F8040B37F8023C400027F821
:10078000082C5B0027F8061C27F8040C27F8023C0D
:10079000B8F10108E8D103B0BDE8F08F2DE9F74FBB
:1007A00007468A4607EB4A0602985FEA51083C462C
:1007B000B146454618BF4FF0000B18D050F8042B37
:1007C000216891FA2BF3316891FA2BFCD3FA1CF1D2
:1007D00093FA2CF344F8043B42FB01F31B0C22FB7D
:1007E00011F1C3EA010146F8041B6D1EE6D1022394
:1007F00041463846029A00F049FA484602234146EB
:10080000029A00F043FA5FEA5A0004BF03B0BDE861
:10081000F08F00BF37F8020B420037F8020B41009F
:1008200037F8040B37F8023C400027F8082C5B002F
:1008300027F8061C27F8040C27F8023CB8F1010839
:10084000E8D103B0BDE8F08F2DE9FF4F078883B0F2
:100850000E4681464FF0000A012A0CD0B7F5807F82
:1008600076D078DC102F73D0202F73D0402F7ED01D
:10087000802F6FD0D0E0B7F5807F15D008DC102F27
:1008800012D0202F18D0402F0ED0802F14D0C3E0CC
:10089000B7F5007F10D0B7F5806F05D0B7F5006FC2
:1008A0000AD0B7F5805F52D1012339463046D9F8D6
:1008B000042000F0EBF9AFE0084606EB4701D9F859
:1008C0000420CDE900217D082C4619D052F804CB34
:1008D000036893FA2AF80B6893FA2AFBD8FA1BF3F9
:1008E00098FA2BF840F8048B4CFB03F84FEA1848B1
:1008F0002CFB13F3C8EA030341F8043B641EE5D163
:10090000022329463046009A00F0C0F9DDE90020B4
:100910000223294600F0BAF9780818BF30467BD088
:1009200030F8021B4A0030F8021B30F8043B490043
:1009300030F802CC5B0020F8082C20F8061C4FEAA7
:100940004C0C20F8043C20F802CC6D1EE8D163E08A
:100950000DE000E013E0B7F5007F10D0B7F5806F31
:1009600005D0B7F5006F0AD0B7F5805F54D10123E9
:1009700039463046D9F8042000F05EF84CE006EB2A
:100980004700D9F80410CDE900105FEA5708344653
:10099000454619D051F8043B226892FA2AFC0268B5
:1009A00092FA2AFBDCFA1BF29CFA2BFC44F804CBEB
:1009B00023FB02FC4FEA1C4C43FB12F2CCEA02027E
:1009C00040F8042B6D1EE5D1022341463046009AC3
:1009D00000F032F8DDE900200223414600F02CF857
:1009E000780818BF304617D030F8021B4FEA410C88
:1009F00030F8021B4B0030F8041B4A0030F8021C90
:100A000020F808CC490020F8063C20F8042C20F8F7
:100A1000021CB8F10108E7D10698002804BF07B00E
:100A2000BDE8F08FB9F80C10D9F8082007B03046AF
:100A3000BDE8F04FFFF7DDBB2DE9FF4F86B04FF06B
:100A4000000C0798069A800802EB800101EB8005F4
:100A50000290009005EB8004E646166896FA2EF6A2
:100A600096FA2EF82E6896FA2EF696FA2EF698FA40
:100A700016F7D8FA16F6D1F8008098FA2EF898FAF8
:100A80002EF8D4F8009099FA2EF999FA2EF998FADE
:100A900019F897FA28F942F8049BD7FA18F7DDF805
:100AA000208008EBCC08D8F8008028FB07F94FEA33
:100AB000194948FB17F80F6897FA2EF797FA2EF79F
:100AC000C9EA080841F8048BD4F8008098FA2EF897
:100AD00098FA2EF8D7FA18F8A6FA18F7E6FA18F6E0
:100AE000DDF8208008EB8C08D8F8008028FB06F998
:100AF0004FEA194948FB16F6C9EA060645F8046BA1
:100B0000089E0CEB4C0806EB8806366826FB07F8B7
:100B10004FEA184846FB17F6C8EA060644F8046B85
:100B20009C44401E99D19800099002980590042891
:100B30007ED90098810800910021049101910099CB
:100B4000491E0391049A0899079D01EB8201019CBB
:100B5000D1F800800899AC4201EBC20102EB4202DD
:100B60000F68089901EB8201099AD1F80090049965
:100B700011440491019A069901EB82030099009AAD
:100B800003EB810101EB820C0CEB820245D21D6864
:100B9000DCF800A095FA1AF6D5FA1AF5D1F800A0FB
:100BA000D2F800B09AFA1BFA96FA2AFB9BFA2EFBAF
:100BB000C3F800B003EB8003D6FA2AF627FB06FA47
:100BC0004FEA1A4A47FB16FB0E68CAEA0B0AC1F83D
:100BD00000A0D2F800A001EB8001D6FA1AFAA5FA1B
:100BE0002AF6E5FA2AF528FB05FA4FEA1A4A48FBE5
:100BF00015F5CAEA0505CCF800500CEB800C29FB72
:100C000006F52D0C49FB16F6C5EA06051560079D8D
:100C1000044402EB8002AC42B9D30199039A491C07
:100C2000019191428ED9099880000990059800E0C1
:100C300004E08008059004283FF67BAF029B0699EC
:100C400051F804CB51F8042B51F8044B08689CFA76
:100C500014F592FA10F695FA26F641F80C6C92FA11
:100C600010F6D5FA26F541F8085CDCFA14FCD2FA45
:100C700010F0ECFA20F241F8042CACFA20F041F824
:100C8000040B5B1EDCD10AB0BDE8F08F2DE9FF4FED
:100C900086B04FF0000C0798069A800802EB80019E
:100CA00001EB80050290009005EB8004E646166893
:100CB00096FA2EF696FA2EF82E6896FA2EF696FAF0
:100CC0002EF698FA16F7D8FA16F6D1F8008098FAA8
:100CD0002EF898FA2EF8D4F8009099FA2EF999FA8D
:100CE0002EF998FA19F897FA28F942F8049BD7FADE
:100CF00018F7DDF8208008EBCC08D8F8008048FB16
:100D000007F94FEA194928FB17F80F6897FA2EF7E9
:100D100097FA2EF7C9EA080841F8048BD4F8008046
:100D200098FA2EF898FA2EF8D7FA18F8E6FA18F783
:100D3000A6FA18F6DDF8208008EB8C08D8F80080B9
:100D400048FB06F94FEA194928FB16F6C9EA0606D8
:100D500045F8046B089E0CEB4C0806EB88063668D9
:100D600046FB07F84FEA184826FB17F6C8EA0606BE
:100D700044F8046B9C44401E99D198000990029855
:100D8000059004287ED900988108009100210491E3
:100D900001910099491E0391049A0899079D01EB5E
:100DA0008201019CD1F800800899AC4201EBC2019C
:100DB00002EB42020F68089901EB8201099AD1F80F
:100DC0000090049911440491019A069901EB820361
:100DD0000099009A03EB810101EB820C0CEB82027B
:100DE00045D21D68DCF800A095FA1AF6D5FA1AF576
:100DF000D1F800A0D2F800B09AFA1BFA96FA2AFBB2
:100E00009BFA2EFBC3F800B003EB8003D6FA2AF658
:100E100047FB06FA4FEA1A4A27FB16FB0E68CAEA96
:100E20000B0AC1F800A0D2F800A001EB8001D6FAAD
:100E30001AFAE5FA2AF6A5FA2AF548FB05FA4FEA66
:100E40001A4A28FB15F5CAEA0505CCF800500CEB48
:100E5000800C49FB06F52D0C29FB16F6C5EA0605A4
:100E60001560079D044402EB8002AC42B9D301999E
:100E7000039A491C019191428ED9099880000990EA
:100E8000059800E004E08008059004283FF67BAF59
:100E9000029B069951F804CB51F8042B51F8044BEE
:100EA00008689CFA14F592FA10F695FA26F641F8BD
:100EB0000C6C92FA10F6D5FA26F541F8085CDCFACB
:100EC00014FCD2FA10F0ACFA20F241F8042CECFA3F
:100ED00020F041F8040B5B1EDCD10AB0BDE8F08FB6
:100EE00070B5044680780D462188A3896268012880
:100EF00028460DD0FFF7A0FDE078012818BF70BD8F
:100F0000E28921882846A368BDE8704000F0B1B8A6
:100F1000FFF7BCFEF0E72DE9F0014E0801244FF089
:100F2000000C04EB51076146A6F102082CE0614574
:100F30002AD200EBCC0500EBC104D5ED000A94EDFC
:100F4000000AC4ED000A85ED000AD5ED010A94ED12
:100F5000010AC4ED010A85ED010ACC1900EBC405B4
:100F60000CEB070400EBC40495ED000AD4ED000A75
:100F7000C5ED000A84ED000AD4ED010A95ED010AE1
:100F8000C5ED010A84ED010A00EBC104B44400EB95
:100F9000CC0C94ED020ADCED000A891CC4ED020AB7
:100FA0008CED000ADCED010A94ED030AC4ED030A9E
:100FB0008CED010AB3F800C089B203EB420341454E
:100FC000B5D9BDE8F00170472DE9F0074D080124BF
:100FD0004FF0000C04EB51066146A5F102082BE02E
:100FE000614529D250F8314050F83C7040F83170DA
:100FF00040F83C4000EBC10900EBCC04D9F8047088
:10100000D4F804A0C9F804A067608C190CEB06079B
:1010100050F8349050F837A040F834A040F837909A
:1010200000EBC40400EBC707D4F80490D7F804A081
:10103000C4F804A0C7F8049000EBC104AC44A7684E
:1010400050F83C90C4F8089040F83C7000EBCC0C91
:10105000E768DCF80490C4F80C90CCF80470B3F89E
:1010600000C0891C03EB42034145B9D9BDE8F00734
:1010700070472DE9F00F01244F0804EB51084FF0A1
:10108000000C7C0804BFBDE8F00F7047014600EB80
:101090008805002614E0BCEB460F11D950F82CA0AF
:1010A000D1F80090C1F800A040F82C900CEB080992
:1010B000D5F800A050F829B0C5F800B040F829A034
:1010C000BC4451F8049F50F82CA041F804AB40F800
:1010D0002C90B3F800C003EB4203641E05F1080531
:1010E00006F10106D7D1BDE8F00F704700F00042CD
:1010F00030F000400AD0C10D01F56071C0F3160058
:1011000042EA0151C20840071143704700200146DE
:10111000704730B50B46014600202022012409E02B
:1011200021FA02F59D4205D303FA02F5491B04FAA0
:1011300002F52844151EA2F10102F1DC30BD2DE9B3
:10114000F05F0546002092469B468846064681464B
:1011500040241BE0284641464746224600F0F9F964
:1011600053465A46C01A914110D31146184622469A
:1011700000F0E0F92D1A67EB01084F4622460120E6
:10118000002100F0D7F917EB00094E41201EA4F111
:101190000104DFDC484631462A464346BDE8F09F5D
:1011A0002DE9FE4F804681EA0300C00F0C460090F7
:1011B00021F0004123F00045B8EB0200A94105D21F
:1011C0004046214690461C460B46024623F000400E
:1011D000104347D0270DC7F30A00C3F30A5102900A
:1011E000401A019040286BDAC3F3130040F4801BCF
:1011F0000098924620B10023D2EB030A63EB0B0B5D
:1012000001985946C0F14002504600F093F9064655
:101210000D4650465946019A00F0ABF910EB080014
:101220006141002487EA115284EAE7731A4340D0EF
:10123000009A62B3019A012A4FEA075215DC001B9B
:1012400061EB02014FF0004202EA0752CDE9004291
:10125000001C41F5801132462B4600F0ABF903B07B
:10126000BDE8F08F40462146F9E7001B61EB020123
:10127000001C41F5801300185B412018A2F50017EF
:1012800047EB030140EAD570B6196D4111E06D08D6
:101290004FEA360645EAC0754FEA0752001B61EB7C
:1012A0000201001C41F5801149084FEA3000001985
:1012B000514132462B4603B0BDE8F04F00F06BB908
:1012C0000098012240000023D0EB020263EBE073A0
:1012D000009821464FEAE074B8EB000061EB04018E
:1012E000E9E783F000435BE781F0004158E72DE92F
:1012F000FE4F81EA030404F0004421F00041009411
:101300004FF0000B23F0004350EA01045ED052EA94
:1013100003045BD0C3F30A54C1F30A552C44A4F26E
:10132000F3340194A0FB0254C1F3130141F4801182
:10133000C3F3130343F4801301FB024400FB034E89
:10134000840A970A44EA815447EA8357A4FB076852
:1013500002958D0A05FB07854FEA932C04FB0C547C
:101360002705029D4FEA065847EA1637B5EB0805F0
:101370006EEB070C870E920E47EA811742EA831242
:10138000A7FB0201B6EB0B0164EB00042B0D43EA53
:101390000C335E1844EB1C50DA465146E7FB020161
:1013A000C5F313044FEA0B3343EA14534FEA0432F4
:1013B000019C43EA0603A4F10C040294009CCDE9CD
:1013C00000B400F0F7F803B0BDE8F08F002001464C
:1013D000F9E72DE9F04D81EA030404F0004B21F018
:1013E000004514464FF0000A23F0004150EA050280
:1013F00020D054EA01021DD0C5F30A570246C5F3B6
:101400001303C1F31300C1F30A5640F4801543F4EB
:101410008013A7EB0608101BD64608F2FD3873EBC5
:10142000050002D308F1010801E092185B41B8F110
:10143000000F03DA00200146BDE8F08D00204FF4D4
:101440008011064684460EE0171B73EB050705D393
:10145000121B63EB050306434CEA010C49084FEAF3
:10146000300092185B4150EA0107EDD152EA0300C7
:1014700012D082EA040083EA0501084305D0101B5C
:10148000AB4106D20122002306E000224FF00043C8
:1014900002E06FF0010253101AEB06004CEB08510A
:1014A00010EB0A0041EB0B01BDE8F04D00F073B802
:1014B000C1F30A52C1F3130140F2FF3341F480112A
:1014C0009A4202DA00200146704740F233439A42C2
:1014D000A2F2334202DC524200F03BB800F02AB8DC
:1014E00030B5041E71F1000404DB4FF000444042AB
:1014F00064EB0101141E73F1000405DB1C464FF080
:101500000043524263EB0403994208BF904230BD4E
:10151000064C074D06E0E06840F0010394E8070040
:1015200098471034AC42F6D3FEF792FEE05801081B
:1015300000590108202A04DB203A00FA02F10020B9
:1015400070479140C2F1200320FA03F31943904001
:101550007047202A04DB203A21FA02F0002170476C
:1015600021FA02F3D040C2F120029140084319460B
:101570007047202A06DBCB17203A41FA02F043EAF3
:10158000E07306E041FA02F3D040C2F1200291403C
:1015900008431946704710B5141E73F1000408DAA9
:1015A000401C41F1000192185B411A4301D120F027
:1015B000010010BD2DE9F04D92469B4611B1B1FAE4
:1015C00081F202E0B0FA80F220329046FFF7B2FFDB
:1015D00004460F4640EA0A0041EA0B0153465A46C8
:1015E000084313D0114653EA010019D0C8F1400254
:1015F0005046FFF7AEFF05460E4650465946424656
:10160000FFF798FF084305D0012004E02046394643
:10161000BDE8F08D0020054346EAE0762C433743D1
:101620000A986305E40AA0EB08000022FD0A44EAD8
:1016300047540A3002D500200146E9E70105101998
:101640006941DDE9084500196941BDE8F04DA2E7AF
:101650006548016841F00101016063481430016888
:1016600041F480710160016841F40071016001681A
:1016700041F4806101605D48D0F8041341F0060137
:10168000C0F80413D0F8041341F40041C0F8041367
:10169000D0F8041341F40051C0F80413D0F8041337
:1016A00021F48071C0F80413416821F08071416019
:1016B000416821F000714160816841F00101816061
:1016C000D0F8041341F40001C0F804131021416361
:1016D000816821F400618160816821F0706141F0CE
:1016E00000618160816821F0405141F0805181604A
:1016F000C16821F4E01141F48021C1603C498A684D
:1017000022F0030242F010028A600A6842F00302EB
:101710000A6000224A60D0F8041121F08071C0F8FC
:101720000411D0F8041121F00071C0F80411D0F8B0
:10173000081141F00101C0F80811C0F83021C0F8CB
:101740003421D0F8081141F04051C0F80811D0F808
:10175000081141F07061C0F80811D0F8081121F4A7
:101760000061C0F80811D0F8101121F00701491CE0
:10177000C0F81011816841F0804181601E491D4808
:101780000860091D1D4808601B480838016841F0C1
:1017900010010160016821F0C0010160016841F49D
:1017A00080710160016821F480310160016841F4B9
:1017B00080610160016821F400710160016841F4F9
:1017C00080510160016841F480410160016821F0AD
:1017D00060610160011D0A6842F032020A6001681E
:1017E00041F00101016070473038024000200140A3
:1017F000000002400823014018640240F014002059
:101800004D48016841F0010101604B481430016806
:1018100041F4806101604948816821F00C0141F088
:1018200040018160016841F00C01016000214160CC
:101830004348D0F8041241F02001C0F80412D0F857
:10184000041221F08071C0F80412D0F8041221F0C3
:101850000071C0F80412D0F8081241F00101C0F87C
:1018600008120121C0F83412D0F8081221F40061E6
:10187000C0F80812D0F8081221F0706141F0C06180
:10188000C0F80812D0F8081221F0405141F0805100
:10189000C0F80812D0F8081241F48071C0F808129C
:1018A000D0F8081241F40071C0F80812D0F80C12F8
:1018B00021F0380141F00801C0F80C12D0F80812EC
:1018C00041F08041C0F808121F491E480860091DF8
:1018D0001E4808601C480838016841F0100101608A
:1018E000016821F0C0010160016841F4807101606C
:1018F000016841F480310160016841F48061016058
:10190000016821F400710160016841F40061016027
:10191000016841F400510160016821F0606141F00B
:1019200080610160011D0A6842F480620A600168FA
:1019300041F0010101607047303802400000024070
:10194000002001404C22014030640240B8150020C4
:101950000C49D1F80002800713D50022C1F80022FB
:101960000948C3790A2B03D101230371C271028193
:10197000D1F84C12054AC37922F81310C179491CD9
:10198000C17170470020014028000020DC140020B5
:101990001848016841F0100101601748816821F47E
:1019A000405141F400518160016821F04001016023
:1019B000C16841F04001C160002141600D48143010
:1019C000016841F4804101600C48016821F47041D4
:1019D00041F4804101600A48016841F0080101605A
:1019E00007480830016841F008010160092000F053
:1019F00099BA000030380240001002400838014017
:101A0000003C014006480068800608D504492020B3
:101A100008310860034800210181012141717047AC
:101A2000006402402800002006480068000507D531
:101A300004494FF4006008310860034901208871AF
:101A4000704700000064024028000020064810B5DE
:101A5000016841F480010160382000F063FABDE8BC
:101A60001040392000F05EBA303802400249086167
:101A700008690028FCD170472800002038B50D49BE
:101A8000082008600024F0234FF4A072214620466D
:101A9000009400F0F3FF14214FF6FF72084601F0A6
:101AA00017F80548C178012902D00121C17038BD5D
:101AB000C47038BD143C014028000020254801684E
:101AC00041F008010160016841F002010160016814
:101AD00041F0100101601F480830016841F0010128
:101AE00001601D48016841F0040101601B48016864
:101AF0001B4A11430160194808380168194A11430B
:101B000001601649184818310860091D1748086017
:101B10000107174801624FF0CC3141628168154AD4
:101B2000114381600168144A1143016090036FF012
:101B30007041C0F804110268104B1A40026002683C
:101B400041F259031A4302604160416821F080511B
:101B5000416070473038024000040240080C0240E7
:101B60000FCF3FFC0A8A2AA8CC00CCC0CC0CC0CC3A
:101B70000010024000C0FFFF0080AAAAFD10F7FF7E
:101B80000948016841F0010101600848816821F4B9
:101B9000405141F480318160016821F4405141F4A9
:101BA0008051016070470000303802400000024060
:101BB0000948016841F0010101600848816821F489
:101BC000404141F480218160016821F4404141F4A9
:101BD0008041016070470000303802400000024040
:101BE0000948016841F0020101600848016821F0DC
:101BF0000C0141F00801016004480838016821F037
:101C00000C01091D01607047303802400804024091
:101C10000548C168491CC1600169002902D00169F9
:101C2000491E016170470000280000204FF0E020AD
:101C3000016921F001010161016941F002010161C5
:101C4000016941F004010161416901F07F4101F541
:101C500024313F314161416901F07F4101F5243177
:101C60003F314161016941F00101016170470000AC
:101C7000324810B500230360304908310B60021D63
:101C800013602F4B1C6824F00704641D1C6003685C
:101C900043F00103036003689B07FCD5036843F42A
:101CA0008033036003689B03FCD5036823F480231F
:101CB00003600B6823F003039B1C0B600B6823F08D
:101CC0000C0343F008030B600B680B600B6823F4F4
:101CD000E05343F4A0530B600B6823F4604343F4D8
:101CE00000430B600B6823F480330B60116821F014
:101CF0003F01091D1160116847F6C073994341F413
:101D000028511160116821F0706141F0806111600B
:101D1000116821F480311160116841F48001116073
:101D2000064930310A6842F080020A60016841F0D9
:101D30008071016001688901FCD510BD0038024046
:101D4000003C02400248016841F4700101607047A4
:101D500088ED00E04FF080400169C9070BD00169B0
:101D600021F00101016107488278074922B18022F0
:101D70008A610021817070474FF400028A6101215D
:101D8000F8E7000028000020000002401248016827
:101D900041F0010101600006816821F007018160C6
:101DA00000210160542181626421C162C16841F057
:101DB0000101C160016821F010010160416821F05A
:101DC000700141F020014160016841F001010160B2
:101DD0001C2000F0A7B80000403802400A48016803
:101DE000C9070BD0016821F0010101600748427862
:101DF000074922B140228A610021417070474FF4A7
:101E000080028A610121F8E71004004028000020C8
:101E1000000002401648016841F0020101601548C7
:101E2000016821F0070101601248002108380160B3
:101E3000104A42F2D001203211606421121D11605B
:101E40000C49091D0A6842F001020A60016821F08C
:101E500010010160011D0A6822F0700242F02002A8
:101E60000A60016841F0010101601D2000F05AB8CC
:101E7000403802400804004005480168C90706D000
:101E8000016821F0010101600249012008707047DA
:101E900010080040280000201748016841F00401A4
:101EA00001601648016821F0070101601348002114
:101EB00008380160114A42F2D00120321160121D2F
:101EC00042F2107111600D49091D0A6842F00102C9
:101ED0000A60016821F010010160011D0A6822F00A
:101EE000700242F020020A60016841F001010160C5
:101EF0001E2000F017B800004038024008080040DB
:101F000037B514460846064B6A46214600F0E8F805
:101F100004466946002000F066FC20463EBD0000F5
:101F2000E7270008002809DB00F01F02012191408B
:101F30004009800000F1E020C0F80011704702E085
:101F400008C8121F08C1002AFAD170477047002044
:101F500001E001C1121F002AFBD170472DE9FF5F8C
:101F600082B00021DDE90430020DDDF840B003430A
:101F700018D044F61050A2F2FF32424315141198C3
:101F800001281FD0A5EB0B00401C5FEA000A4FF0B0
:101F900000064E4FDFF83891B046504615D5CAF1CD
:101FA000000413E0119801244AA3012801D16FEA2B
:101FB0000B010298119AC0E90031C0E9024206B053
:101FC000BDE8F09FCBF10000DFE704460021404A66
:101FD000491842EB0450CDE9001012E0E00707D0A9
:101FE00032463B4640464946FFF781F980468946DE
:101FF00032463B4610461946FFF779F906460F462A
:102000006410002CEAD1DDE90401DDE90023BAF116
:10201000000F06DAFFF76BF942464B46FFF767F908
:1020200005E0FFF7D6F942464B46FFF7D2F90446E2
:102030000E460022284BFFF753FA03D84FF0FF302B
:10204000014607E00022254B20463146FFF7A8F85D
:10205000FFF72EFA102409E0002C0ADB0A220023E5
:10206000FFF76DF8039B30321A55641E50EA0102E7
:10207000F2D1641C039AC4F111031444119A012A89
:1020800003D0012208430DD10AE0084304D0002008
:102090004FF0110B119072E7A3EB0B056D1E0DE0D5
:1020A0005B4504DD4FF0000205F1010504E003DAB1
:1020B0004FF00002A5F10105002AECD00298119919
:1020C000C0E90231C0E9004579E700000000144092
:1020D0000000F03F300000000000F0430000E03F4F
:1020E0002DE9FF4F95B09A46884606460025EEE159
:1020F000252877D100242746F94A0121039400E0DE
:10210000044316F8013F203B01FA03F01042F7D1D7
:1021100030782A2811D06FF02F033078A0F13002E8
:10212000092A16D8039A44F0020402EB820203EB58
:1021300042021044761C0390EFE758F8042B0392F8
:10214000002A03DA504244F40054039044F002049D
:10215000761C30782E2816D116F8010F44F00404AE
:102160002A280DD06FF02F023078A0F13003092B10
:1021700009D807EB870302EB4303C718761CF3E784
:1021800058F8047B761C30786C280FD006DC4C287D
:1021900017D068280DD06A2814D104E0742810D014
:1021A0007A280FD10DE044F400140AE044F48014BE
:1021B00001E044F440147278824202D104F58014A4
:1021C000761C761C307866280BD013DC582877D024
:1021D00009DC002875D04528F6D04628F4D04728D9
:1021E0001AD193E118E0632835D0642879D06528A6
:1021F00012D18BE1702873D008DC6728F1D06928F0
:102200006FD06E280DD06F2806D1ACE073282CD08B
:10221000752874D0782853D05246179990476D1C72
:1022200054E1C4F30250022809D003280DD0D8F895
:10223000001004280DD00D6008F1040846E1D8F81C
:102240000010EA17C1E90052F6E7D8F800100D8037
:10225000F2E70D70F0E718F8041B8DF8001000206D
:102260008DF80100EB46012003E058F804BB4FF065
:10227000FF3061074FF0000102D40DE009F10101C8
:102280008946B9420FDA8145F8DB1BF809100029AD
:10229000F4D108E009F1010189468142FADB1BF81B
:1022A00009100029F6D103985346A0EB09072146EF
:1022B0003846179A00F080FA284400EB090507E039
:1022C00044E008E10DE01BF8010B524617999047D6
:1022D000B9F10109F7D2534621463846179AF2E080
:1022E00039E00A21C4F302524FF0000B0091022A98
:1022F00006D058F8040BC117032A09D00AE023E0DE
:1023000008F1070020F00702F2E80201904605E01C
:1023100000B2C117042A01D140B2C117002906DA60
:102320000A460021404261EB02012D2202E0220513
:1023300004D52B228DF80420012203E0E20701D00E
:102340002022F7E7914657E00A2100E010214FF0E4
:10235000000B00910BE010214FF0000B44F004043F
:102360000827009103E008204FF0000B0090C4F311
:102370000252022A05D058F8040B0021032A08D083
:1023800008E008F1070020F00702F2E80201904699
:1023900003E080B2042A00D1C0B24FF00009220746
:1023A0002AD53278702A07D0DDF800C08CF0100CE6
:1023B0005CEA0B0C05D00EE040228DF804200122CF
:1023C00008E050EA010306D030238DF804308DF880
:1023D000052002229146009B83F0080353EA0B0379
:1023E0000AD150EA010201D1620705D530228DF8E9
:1023F00004204FF001097F1E3278582A04D039A2F8
:102400000C920CAA02920BE03BA2F9E75B46009A01
:10241000FEF795FE0C9B9B5C029A521E0292137073
:1024200050EA0102F2D1029804A9081A00F1200B27
:10243000600702D524F4803400E001275F4502DD07
:10244000A7EB0B0000E0002000EB0B0100900398CD
:102450004944401A0390E00306D453462146179A94
:10246000039800F0A9F90544002706E001A85246A8
:10247000C05D179990476D1C7F1C4F45F6DBE0034C
:102480000CD553462146179A039800F095F9054458
:1024900004E030205246179990476D1C0099481E61
:1024A00000900029F5DC08E0029802995246007875
:1024B000491C0291179990476D1CBBF10001ABF1CB
:1024C000010BF1DC5BE100F065F90544761C307826
:1024D00000287FF40DAE19B02846BDE8F08F00004B
:1024E00009280100303132333435363738396162EA
:1024F00063646566000000003031323334353637AE
:10250000383941424344454600000000600700D48A
:10251000062708F1070020F00700F0E802238046B4
:1025200003F0004C5FEA0C0001D097A009E0200501
:1025300001D596A005E0E00701D095A001E0AFF23B
:102540004C001390307823F0004365280CD006DC53
:10255000452809D046281DD047287FD13BE0662872
:1025600018D067287AD136E00021112F01DB112025
:1025700000E0781CCDE9000104A90CA8FFF7EEFCEF
:10258000DDE90D010C9A4FF0000B07F101091092E3
:1025900000914EE04FF000400097CDE9011004A9F2
:1025A0000CA8FFF7DBFCDDE90D020C9B0F994FF047
:1025B000000B91461093009211B9791C00EB0109B0
:1025C000B7EB090003D4C0F1FF3B07F10109A9EB08
:1025D0000700019042E0012F00DA01270021112FAE
:1025E00001DD112000E03846CDE9000104A90CA866
:1025F000FFF7B4FCDDE90D010C9A00914FF0000BE0
:10260000B946109221070FD4009A4A4503DA914641
:1026100001E0A9F10109B9F1010F05DD109AA9F155
:102620000101515C3029F4D0B84202DA10F1040FF4
:1026300003DA0121CDE9011010E0002803DC834416
:10264000A9EB000102E0411C494500DD8946A0EBF1
:102650000B00401C01904FF000400290200705D471
:102660000198484502DB4FF0FF30019000208DF8C3
:102670004B0002980DF14B07B0F1004F25D002201E
:102680000C902B200D90029800280CDA404202900A
:102690002D200D9007E00A210298FEF73AFD303117
:1026A000029007F8011D0C99481E0C900029F2DCDD
:1026B00002980028EFD1791E0D980870307800F04C
:1026C000200040F0450007F8020D11A8C01BC01DF6
:1026D00002901398007800B1012000EB09010198E5
:1026E00001EBE071029801440398401A401E0390E8
:1026F000E00306D453462146179A039800F05CF88D
:1027000005441398007818B15246179990476D1CEC
:10271000E00323D553462146179A039800F04CF85E
:1027200005441BE0BBF1000F07DB0098584504DDB2
:102730001098179910F80B0001E0179930205246B5
:10274000904701980BF1010B401E05F10105019026
:1027500004D12E205246179990476D1CB9F1000103
:10276000A9F10109DEDC05E017F8010B52461799C3
:1027700090476D1C0299481E02900029F4DC5346D4
:102780002146179A03989EE62D0000002B000000BA
:10279000200000002DE9F041044600251E461746A2
:1027A000880404D405E039462020B0476D1C641E1F
:1027B000F9D52846BDE8F0812DE9F0410446002511
:1027C0001E469046C80301D5302700E02027880424
:1027D00004D505E041463846B0476D1C641EF9D566
:1027E0002846BDE8F0810A68531C0B6010707047E2
:1027F00001490220086070471804024070B5044681
:10280000DDE90456002006B104200DB140F00800B7
:102810000BB140F010000AB140F0200009B140F0C7
:102820004000002C01D040F0800070BD2DE9FF4F2A
:1028300083462E488A4602885A4555DD41885145CF
:1028400052DD00F108018868838813EB0B0F4BD42D
:10285000C08810EB0A0F47D44FF00008C0F3C70937
:1028600044463BE0002633E0204808308068C288B8
:1028700001680298203800FB024202FB0910002583
:10288000375C380609D50AEB040081B20BEB050270
:1028900002EB080080B2039A0CE003990D9888427D
:1028A0000AD00AEB040081B20BEB050202EB080030
:1028B00080B20D9A00F08EF878066D1C070EEDB20E
:1028C000082DDED308F10800761C00F0FF08F6B2F0
:1028D0004E45C9D3641C4FF00008E4B203480830E9
:1028E0008168C988A142BDD8BDE8FF8F4C00002097
:1028F00070B51E46044613460D46A14201D20C4651
:1029000085B20A480188481EA94200D885B2A14272
:1029100000D884B22A461946204600F01BFC044821
:1029200001E00680641CAC42FBDD70BD4C00002061
:10293000000008602DE9F04F0C4606461546191BAD
:10294000A2EB060000D54942002800DA404281424D
:1029500007DD304626461D464FF001080446134663
:1029600001E04FF00008AE4205DD30462E46054638
:1029700020461C460346A81B0FFA80F9181B00D5F9
:1029800040420FFA80FB09EBD97047109C4201DAF4
:10299000012001E04FF0FF30824617E0B8F1000F50
:1029A00002D0B1B2A0B201E0A1B2B0B2099A00F077
:1029B00011F8A7EB0B0007B2002F05DA04EB0A00B1
:1029C00004B207EB090007B2761C36B2AE42E5DD71
:1029D000BDE8F08F10B51446064A1388834208D923
:1029E00052888A4205D90B46024600F0B3FB0248E2
:1029F000048010BD4C0000200000086070B50C463B
:102A00001E461546A24201D214468DB20C490A88D0
:102A1000824201D8521E90B24A88511EA24200D86A
:102A20008CB2AA4200D88DB22B460246214600F055
:102A300091FB044801E00680641CAC42FBDD70BDE4
:102A40004C0000200000086030B50A4D044600210B
:102A50006888401E83B22888401E82B2084600F073
:102A600079FB288869884843034900E00C80401EB0
:102A7000FCD230BD4C000020000008602DE9F04180
:102A800005461248DDF818800488AC421CDD4088F9
:102A9000884219DDAE18761EA64201DB621B12B217
:102AA000CC18641E844201DB401A03B2AE180C46F7
:102AB000CF1807E0A2B2B1B2A8B24346FFF718FFA1
:102AC000641C24B2A742F5DABDE8F0814C00002076
:102AD0002DE9F84F002514468A4681462F46C7EB5C
:102AE000C70000EB8000002600EB090806EBC600DB
:102AF00000EB061101EB0A0081B21FFA88F02246B2
:102B000000F046FB382D12D205EB850B0BEB0900CC
:102B100080B223467A227621FFF770FF282D06D255
:102B20000BF114022346A2219E20FFF7E1FE6D1C4B
:102B3000761CF6B2EDB2082ED8D37F1CFFB2082F58
:102B4000CDD32346E62237211420FFF7D1FE2346BA
:102B5000E922DC211420FFF751FF2346E922DC2182
:102B60003720FFF74BFFE9231D22E62114200094B4
:102B7000FFF7E0FEE3231D22E62114200094FFF777
:102B8000D9FEE9232E22E62137200094FFF7D2FE5A
:102B9000E3232E22E62137200094FFF7CBFE2346C5
:102BA000DC22C3210A20FFF729FF2346DC2207216C
:102BB0001420FFF79DFE2346C32207211420FFF7B0
:102BC00097FECD230D22C3210A200094FFF7B2FE09
:102BD000D2230D22DC210A200094FFF7ABFECD2387
:102BE0000722C3210A200094FFF7A4FED223072264
:102BF000DC210A200094FFF79DFEBDE8F88F2DE947
:102C0000F84F002514468A4681462F46C7EBC70079
:102C100000EB8000002600EB090806EBC60000EB85
:102C2000061101EB0A0081B21FFA88F0224600F07B
:102C3000AFFA382D12D205EB850B0BEB090080B2F1
:102C40002346DE22DA21FFF7D9FE282D06D20BF12A
:102C50001402234616211220FFF74AFE6D1C761C33
:102C6000F6B2EDB2082ED8D37F1CFFB2082FCDD319
:102C70002346E62237211420FFF73AFE2346E922B5
:102C8000DC211420FFF7BAFE2346E922DC2137209D
:102C9000FFF7B4FEE9231D22E62114200094FFF77C
:102CA00049FEE3231D22E62114200094FFF742FE93
:102CB000E9232E22E62137200094FFF73BFEE32391
:102CC0002E22E62137200094FFF734FE2346DC2233
:102CD000C3210A20FFF792FE2346DC22072114209D
:102CE000FFF706FE2346C32207211420FFF700FE4C
:102CF000CD230D22C3210A200094FFF71BFED2230F
:102D00000D22DC210A200094FFF714FECD230722B8
:102D1000C3210A200094FFF70DFED2230722DC21F5
:102D20000A200094FFF706FEBDE8F88F074900204F
:102D300008804880081D41880088491E401E8BB2CB
:102D400082B20021084600F005BA000048000020C9
:102D50002DE9FC4100250126CDE900652B462A46D8
:102D600031462846FFF74AFD6E4F00230122387096
:102D7000CDE9006519461046FFF740FD7870002345
:102D8000CDE900651A4619460120FFF737FDB870F6
:102D90000122CDE90065002311461046FFF72EFD04
:102DA0004FF0C044F87026803220FEF75FFE2820E6
:102DB0002080CF2020805C48058083210180302145
:102DC0000180ED21218064210180032101801221F5
:102DD000018081210180E8212180852101800680F8
:102DE00079210180CB212180392101802C21018092
:102DF00005803421018002210180F72121802021DA
:102E00000180EA21218005800580C02121802621C2
:102E10000180C121218011210180C521218035211E
:102E200001803E210180C7212180BE210180362101
:102E30002180397801803A21218055210180B121FA
:102E4000218005801B210180F22121800821018041
:102E5000262121800680E02121801F2101801A2166
:102E60000180182101800A2101800F2101800621A3
:102E700001804521018087210180322101800A21C2
:102E800001800721018002210180072101800521A5
:102E900001800580E12121800580252101802721F5
:102EA00001800521018010210180092101803A2142
:102EB0000180782101804D210180052101801821A8
:102EC00001800D210180382101803A2101801F21DC
:102ED00001802A212180058005800580EF21018065
:102EE0002B2121800580058006803F210180B721AC
:102EF000218007210180B62121800A2101808221C1
:102F00000180272101800580112020806420FEF7A8
:102F1000ADFD292020806420FEF7A8FD2C20208014
:102F2000BDE8FC8144000020000008602DE9F84362
:102F30000024994617460E4680462546FFF7F6FEC2
:102F4000002006E036F81010A94200D30D46401CC0
:102F500080B2B842F6D36420B5FBF0F0401C85B2D5
:102F600021E000BF06EB44004088404290FBF5F0B2
:102F7000783003B236F81400CDF80090404290FB50
:102F8000F5F0783001B208EB44004088143002B20A
:102F900038F81400143000B2FFF7CCFCB4F5897F88
:102FA00003D0641CA4B2BC42DCD3BDE8F8830000AB
:102FB0002DE9F8430024994617460E4680462546DB
:102FC000FFF7B4FE002006E036F81010A94200D347
:102FD0000D46401C80B2B842F6D3C820B5FBF0F0D5
:102FE000401C85B221E000BF06EB4400408840420F
:102FF00090FBF5F0DC3003B236F81400CDF8009009
:10300000404290FBF5F0DC3001B208EB4400408810
:10301000143002B238F81400143000B2FFF78AFC02
:10302000B4F5897F03D0641CA4B2BC42DCD3BDE8F4
:10303000F88300000FB428482DE9F84309AA08993D
:10304000FEF75EFFDFF894800026A8F10807224D06
:103050003C1F2BE00A2A30D00D2A21D0092A32D079
:10306000B8F8040080B20090B8F80000B4F902107B
:1030700083B2B4F90000FFF7D9FBD8F80810228812
:103080008888024492B2228098F80C3043B13B8881
:10309000181A904204DA6088C98808446080268043
:1030A000608879886D1C884200D366802A78002A5F
:1030B000D0D1BDE8F8035DF814FBD8F808006188AA
:1030C000C0880844EAE7D8F808002188808801EB26
:1030D00080002080E4E70000B81D0020540000209C
:1030E000034A0B4610805180024600F033B80000BE
:1030F00048000020154930B43622130708711A80A1
:10310000134BA1F10802F0244FF4A07530B101284F
:103110000BD0022804D003280DD108E0107800E07D
:10312000907818800C804D8005E0507800E0D078D1
:1031300018800D804C804888401E83B2088830BCBF
:10314000401E82B20021084600F004B84C00002066
:103150000000086070B54FF0C0452A242C800B4C4D
:10316000060A2680C0B22080100A2080D0B22080BB
:103170002B202880080A2080C8B22080180A2080CE
:10318000D8B220802C20288070BD0000000008608C
:103190002DE9F041904601F119050C460746AAB207
:1031A0004346FFF72BFC07F12306AAB2B0B2434611
:1031B0002146FFF723FCB1B2434622463846FFF7CB
:1031C00097FBAAB2B1B243463846BDE8F041FFF7DB
:1031D0008FBB00002DED028B82B0FEF749FDFEF79C
:1031E00025FDFEF7CDFCFEF7E3FCFEF7F9FCFFF74B
:1031F000FFFAFEF763FCFFF7ABFD0320FFF77AFF52
:103200000020FFF721FC14214FF6FF720846FFF75C
:103210005FFCFEF741FEFEF7FDFDFEF7B7FDFEF792
:10322000B7FBFEF713FCFEF7EBFAFEF711FAE1210C
:103230004120FFF755FFCC4C94ED040ADFEDCB0A9B
:1032400060EE200A9FEDCA1A80EE810A9FEDC98ABE
:1032500020EE080A84ED050A10EE100AFDF746FF7D
:1032600041EC100BC4A053EC102BFFF7E3FE01233D
:1032700000229902C348FDF749F86070C24A002055
:103280004FF48C77411C22F8101088B2B842F9D361
:10329000BE4EDFF8FCB2DFF8FC924FF4527ABE4D1E
:1032A0002878012807D199F80000012803D1BB48EC
:1032B000007801280FD02878A8460128EFD199F886
:1032C00000000128EBD1B54801780029E7D100784A
:1032D00001287CD0CAE06078002879D1207838B9FC
:1032E0000020F0234FF4A07201460090FFF7C6FBC8
:1032F000AB4AA649A348FDF7F0F8A9494FF4806806
:1033000042460846FCF7BEFF974B41462033A3F1E7
:103310001C02A348FDF79EF94FF0000EC4F81CE014
:10332000A08800EE100AB8EE400ADFED9E0A20EEFB
:10333000200ABCEEC00A10EE100AE061206A42F2D8
:1033400010714843800A0190E169C820B1FBF0F098
:10335000E08000204FF40C68410720D1904931F9FA
:10336000102001EB400131F9023C31F906CC1A443E
:1033700031F9043C63441A4431F9083C1A4431F9E8
:103380000A3C1A4431F90C3C31F90E1C1A44114420
:10339000CA08626261882BF81120491C6180401CB8
:1033A0004045D9D30021F0460F234FF4A0720846C0
:1033B000CDF800E0FFF762FB0521D720FFF790FE74
:1033C000E16979A0FFF736FE0521962001E045E08E
:1033D0003DE0FFF785FE76A00199FFF72BFEE12186
:1033E0004120FFF77DFED4ED050AB7EE001A81EE0D
:1033F000200A20EE080A84ED060A10EE100AFDF7F6
:1034000075FE41EC100B6CA053EC102BFFF712FE75
:1034100014214FF6FF720846FFF7F1FB4FF4784393
:103420003A465B495848FFF7C3FD4FF47A70FEF700
:103430001DFB00233A4656495348FFF7B9FD1421B6
:103440004FF6FF720846FFF7DAFBA4F8028000206F
:10345000287089F800000120207020E70020F02368
:103460004FF4A07201460090FFF708FBE1214120D4
:10347000FFF736FE6069FDF739FE41EC100B3EA008
:1034800053EC102BFFF7D6FD00250F234FF491725C
:10349000294678200095FFF7F1FA14214FF6FF72C4
:1034A0000846FFF715FB304B51460A339A1E374842
:1034B00000F098F86089C821B0FBF1F1E180800844
:1034C000E060E121A520FFF70BFE3EA0E168FFF7D9
:1034D000B1FD04210A20FFF703FE61893DA0FFF73B
:1034E000A9FD00205FF0030136F81020E388B2FB4D
:1034F000F3F2B0FBF1F301FB130326F8102083B9BC
:1035000006EB4003B3F802C09B8862441A44B2FB46
:10351000F1F2B4F802C02BF81C200CF1010CA4F855
:1035200002C0401C80B25045DED34FF478433A4687
:1035300017491548FFF7FAFC4FF47A70FEF796FA30
:1035400000233A4612491048FFF7F0FC14214FF6C9
:10355000FF720846FFF7BCFA658088F8005089F8CA
:10356000005025709BE600000000002000000C4287
:1035700000008C4300007A4425302E3366206D73A2
:1035800020000000C414002064100020B8150020A2
:1035900094120020280000202E0000202B00002084
:1035A00064000020D74C4E3F2564206D560000007B
:1035B000256420487A00000025302E306620487AA5
:1035C00020000000555F64656C3D2564206D562029
:1035D00000000000555F6D61783D2564206D562028
:1035E0000000000070B50588158000241D800DE0E6
:1035F000168830F81450AE4200D915801E8830F875
:103600001450AE4200D21D80641CA4B28C42EFD391
:1036100070BD00000000000000000000000000106D
:1036200010101010000010000000006C484800004E
:10363000000000000000001414287C287C28505052
:103640000000001038404038487010100000002082
:1036500050200C7008140800000000000018202002
:10366000544834000000001010101000000000004A
:1036700000000008081010101010100808000020AA
:103680002010101010101020200000107C1028288E
:103690000000000000000000101010FE10101000CC
:1036A00000000000000000000018103020000000A2
:1036B0000000007C0000000000000000000000008E
:1036C00000303000000000040408081010202040E2
:1036D00000000038444444444444380000000030B2
:1036E0001010101010107C00000000384404081066
:1036F00020447C00000000384404180404443800CE
:103700000000000C141424447E040E000000003C51
:1037100020203804044438000000001C2040784475
:10372000444438000000007C4404080808101000DD
:103730000000003844443844444438000000003855
:103740004444443C04087000000000000030300095
:103750000030300000000000001818000018302071
:10376000000000000C10608060100C0000000000E1
:1037700000007C007C00000000000000C020180455
:103780001820C000000000001824040810003000B9
:1037900000003844444C54544C404438000000303D
:1037A000102828287C44EE00000000F844447844A7
:1037B0004444F8000000003C44404040404438008D
:1037C000000000F0484444444448F000000000FC7D
:1037D000445070504044FC000000007E22283828ED
:1037E000202070000000003C4440404E444438001B
:1037F000000000EE44447C444444EE000000007CA1
:103800001010101010107C000000003C0808084840
:1038100048483000000000EE444850704844E6003C
:10382000000000702020202024247C00000000EEF6
:103830006C6C54544444EE00000000EE6464545434
:10384000544CEC00000000384444444444443800E4
:103850000000007824242438202070000000003864
:10386000444444444444381C000000F84444447830
:103870004844E200000000344C403804046458001E
:10388000000000FE9210101010103800000000EE32
:103890004444444444443800000000EE4444282892
:1038A00028101000000000EE4444545454542800E2
:1038B000000000C6442810102844C600000000EE96
:1038C00044282810101038000000007C4408101014
:1038D00020447C00000000382020202020202020D0
:1038E0003800004020202010100808080000003890
:1038F00008080808080808083800001010284400C4
:1039000000000000000000000000000000000000B7
:1039100000FE001008000000000000000000000091
:103920000038443C44443E00000000C04058644419
:103930004444F80000000000003C4440404438008B
:103940000000000C04344C4444443E0000000000DD
:103950000038447C40403C000000001C207C2020BB
:1039600020207C000000000000364C4444443C040D
:10397000380000C0405864444444EE000000001089
:103980000070101010107C00000000100078080873
:1039900008080808700000C0405C48705048DC000F
:1039A000000000301010101010107C00000000000B
:1039B00000E854545454FE000000000000D8644451
:1039C0004444EE0000000000003844444444380001
:1039D0000000000000D8644444447840E000000047
:1039E00000364C4444443C040E000000006C30207F
:1039F00020207C0000000000003C44380444780093
:103A000000000000207C202020221C00000000007C
:103A100000CC4444444C36000000000000EE444416
:103A2000282810000000000000EE445454542800E0
:103A30000000000000CC48303048CC0000000000FE
:103A400000EE44242818101078000000007C481074
:103A500020447C00000000081010101020101010EE
:103A6000080000101010101010101010000000209E
:103A7000101010100810101020000000000000248A
:103A8000580000000000004000C0F33F00C0E73FC6
:103A900000C0DA3F00C0CE3F00C0C13F00C0B53F0C
:103AA00000C0A83F00C09B3F00C08F3F00C0823FC6
:103AB00000C0763F01C0693F01C05D3F01C0503F7B
:103AC00001C0443F01C0373F01C02A3F01C01E3F33
:103AD00002C0113F02C0053F02C0F83E02C0EC3EEA
:103AE00002C0DF3E03C0D23E03C0C63E03C0B93EA3
:103AF00003C0AD3E04C0A03E04C0943E04C0873E57
:103B000004C07A3E05C06E3E05C0613E05C0553E0C
:103B100006C0483E06C03C3E06C02F3E07C0233EBE
:103B200007C0163E07C0093E08C0FD3D08C0F03D75
:103B300009C0E43D09C0D73D09C0CB3D0AC0BE3D28
:103B40000AC0B23D0BC0A53D0BC0983D0CC08C3DDA
:103B50000CC07F3D0DC0733D0DC0663D0EC05A3D8B
:103B60000EC04D3D0FC0403D0FC0343D10C0273D3D
:103B700010C01B3D11C00E3D11C0023D12C0F53CEE
:103B800013C0E93C13C0DC3C14C0D03C14C0C33C9F
:103B900015C0B63C16C0AA3C16C09D3C17C0913C4F
:103BA00018C0843C18C0783C19C06B3C1AC05F3CFC
:103BB0001AC0523C1BC0453C1CC0393C1DC02C3CAB
:103BC0001DC0203C1EC0133C1FC0073C20C0FA3B58
:103BD00020C0EE3B21C0E13B22C0D53B23C0C83B07
:103BE00024C0BC3B24C0AF3B25C0A23B26C0963BB3
:103BF00027C0893B28C07D3B29C0703B2AC0643B5D
:103C00002BC0573B2BC04B3B2CC03E3B2DC0323B07
:103C10002EC0253B2FC0193B30C00C3B31C0003BB0
:103C200032C0F33A33C0E63A34C0DA3A35C0CD3A5E
:103C300036C0C13A37C0B43A38C0A83A39C09B3A06
:103C40003AC08F3A3BC0823A3CC0763A3DC0693AAE
:103C50003FC05D3A40C0503A41C0443A42C0373A52
:103C600043C02B3A44C01E3A45C0123A47C0053AF9
:103C700048C0F93949C0EC394AC0E0394BC0D339A2
:103C80004CC0C7394EC0BA394FC0AE3950C0A13947
:103C900051C0953953C0883954C07C3955C06F39EB
:103CA00056C0633958C0563959C04A395AC03D398F
:103CB0005CC031395DC024395EC0183960C00B3931
:103CC00061C0FF3862C0F23864C0E63865C0D938D8
:103CD00067C0CD3868C0C03869C0B4386BC0A73879
:103CE0006CC09B386EC08E386FC0823871C075381A
:103CF00072C0693874C05C3875C0503877C04338BA
:103D000078C037387AC02A387BC01E387DC0113859
:103D10007EC0053880C0F93781C0EC3783C0E037FA
:103D200085C0D33786C0C73788C0BA3789C0AE3799
:103D30008BC0A1378DC095378EC0883790C07C3737
:103D400092C06F3793C0633795C0573797C04A37D3
:103D500098C03E379AC031379CC025379EC018376F
:103D60009FC00C37A1C0FF36A3C0F336A5C0E7360D
:103D7000A6C0DA36A8C0CE36AAC0C136ACC0B536A9
:103D8000AEC0A836AFC09C36B1C09036B3C0833643
:103D9000B5C07736B7C06A36B9C05E36BBC05136DB
:103DA000BDC04536BEC03936C0C02C36C2C0203674
:103DB000C4C01336C6C00736C8C0FA35CAC0EE350F
:103DC000CCC0E235CEC0D535D0C0C935D2C0BC35A7
:103DD000D4C0B035D6C0A435D8C09735DAC08B353D
:103DE000DCC07E35DEC07235E0C06635E2C05935D4
:103DF000E4C04D35E7C04035E9C03435EBC0283567
:103E0000EDC01B35EFC00F35F1C00335F3C0F634FC
:103E1000F6C0EA34F8C0DD34FAC0D134FCC0C53491
:103E2000FEC0B83400C1AC3403C1A03405C1933422
:103E300007C1873409C17B340CC16E340EC16234B2
:103E400010C1553413C1493415C13D3417C1303444
:103E500019C124341CC118341EC10B3420C1FF33D6
:103E600023C1F33325C1E63328C1DA332AC1CE3367
:103E70002CC1C1332FC1B53331C1A93334C19C33F7
:103E800036C1903338C184333BC177333DC16B3386
:103E900040C15F3342C1523345C1463347C13A3313
:103EA0004AC12D334CC121334FC1153351C10833A1
:103EB00054C1FC3256C1F03259C1E4325BC1D73231
:103EC0005EC1CB3261C1BF3263C1B23266C1A632BC
:103ED00068C19A326BC18E326EC1813270C1753247
:103EE00073C1693276C15C3278C150327BC14432D1
:103EF0007EC1383280C12B3283C11F3286C113325A
:103F000089C107328BC1FA318EC1EE3191C1E231E4
:103F100094C1D53196C1C93199C1BD319CC1B1316E
:103F20009FC1A431A2C19831A4C18C31A7C18031F5
:103F3000AAC17431ADC16731B0C15B31B3C14F317A
:103F4000B6C14331B8C13631BBC12A31BEC11E3101
:103F5000C1C11231C4C10531C7C1F930CAC1ED3088
:103F6000CDC1E130D0C1D530D3C1C830D6C1BC300D
:103F7000D9C1B030DCC1A430DFC19830E2C18B3090
:103F8000E5C17F30E8C17330EBC16730EEC15B3013
:103F9000F1C14E30F4C14230F7C13630FAC12A3097
:103FA000FDC11E3001C2123004C2053007C2F92F14
:103FB0000AC2ED2F0DC2E12F10C2D52F13C2C92F97
:103FC00017C2BC2F1AC2B02F1DC2A42F20C2982F17
:103FD00023C28C2F27C2802F2AC2742F2DC2672F95
:103FE00030C25B2F34C24F2F37C2432F3AC2372F14
:103FF0003EC22B2F41C21F2F44C2132F47C2062F90
:104000004BC2FA2E4EC2EE2E51C2E22E55C2D62E11
:1040100058C2CA2E5CC2BE2E5FC2B22E62C2A62E8B
:1040200066C2992E69C28D2E6DC2812E70C2752E08
:1040300073C2692E77C25D2E7AC2512E7EC2452E82
:1040400081C2392E85C22D2E88C2212E8CC2152EFA
:104050008FC2092E93C2FC2D96C2F02D9AC2E42D78
:104060009DC2D82DA1C2CC2DA5C2C02DA8C2B42DF1
:10407000ACC2A82DAFC29C2DB3C2902DB7C2842D67
:10408000BAC2782DBEC26C2DC1C2602DC5C2542DDE
:10409000C9C2482DCCC23C2DD0C2302DD4C2242D53
:1040A000D8C2182DDBC20C2DDFC2002DE3C2F42CC8
:1040B000E6C2E82CEAC2DC2CEEC2D02CF2C2C42C40
:1040C000F5C2B82CF9C2AC2CFDC2A02C01C3942CB3
:1040D00005C3882C08C37C2C0CC3702C10C3642C23
:1040E00014C3582C18C34C2C1CC3402C20C3342C94
:1040F00023C3282C27C31C2C2BC3102C2FC3052C07
:1041000033C3F92B37C3ED2B3BC3E12B3FC3D52B77
:1041100043C3C92B47C3BD2B4BC3B12B4FC3A52BE7
:1041200053C3992B57C38D2B5BC3812B5FC3752B57
:1041300063C36A2B67C35E2B6BC3522B6FC3462BC3
:1041400073C33A2B77C32E2B7BC3222B7FC3162B33
:1041500083C30A2B87C3FF2A8CC3F32A90C3E72AA1
:1041600094C3DB2A98C3CF2A9CC3C32AA0C3B72A0F
:10417000A5C3AC2AA9C3A02AADC3942AB1C3882A77
:10418000B5C37C2ABAC3702ABEC3652AC2C3592AE2
:10419000C6C34D2ACAC3412ACFC3352AD3C3292A4D
:1041A000D7C31E2ADCC3122AE0C3062AE4C3FA29B5
:1041B000E9C3EE29EDC3E329F1C3D729F6C3CB291F
:1041C000FAC3BF29FEC3B42903C4A82907C49C2984
:1041D0000BC4902910C4842914C4792919C46D29E9
:1041E0001DC4612922C4552926C44A292AC43E294E
:1041F0002FC4322933C4262938C41B293CC40F29B3
:1042000041C4032945C4F7284AC4EC284EC4E02819
:1042100053C4D42857C4C9285CC4BD2861C4B1287C
:1042200065C4A5286AC49A286EC48E2873C48228DF
:1042300078C477287CC46B2881C45F2885C454283F
:104240008AC448288FC43C2893C4312898C42528A0
:104250009DC41928A1C40E28A6C40228ABC4F62701
:10426000B0C4EB27B4C4DF27B9C4D327BEC4C82762
:10427000C2C4BC27C7C4B127CCC4A527D1C49927C1
:10428000D6C48E27DAC48227DFC47727E4C46B271D
:10429000E9C45F27EEC45427F2C44827F7C43D277A
:1042A000FCC4312701C5252706C51A270BC50E27D3
:1042B00010C5032715C5F7261AC5EC261EC5E0262E
:1042C00023C5D42628C5C9262DC5BD2632C5B2268C
:1042D00037C5A6263CC59B2641C58F2646C58426E4
:1042E0004BC5782650C56D2655C561265AC556263C
:1042F0005FC54A2664C53F2669C533266EC5282694
:1043000073C51C2678C511267EC5052683C5FA25EA
:1043100088C5EE258DC5E32592C5D72597C5CC2543
:104320009CC5C025A1C5B525A7C5A925ACC59E2599
:10433000B1C59225B6C58725BBC57C25C1C57025ED
:10434000C6C56525CBC55925D0C54E25D5C5422541
:10435000DBC53725E0C52C25E5C52025EAC5152593
:10436000F0C50925F5C5FE24FAC5F32400C6E724E7
:1043700005C6DC240AC6D02410C6C52415C6BA2436
:104380001AC6AE2420C6A32425C698242AC68C2487
:1043900030C6812435C676243BC66A2440C65F24D5
:1043A00045C654244BC6482450C63D2456C6322424
:1043B0005BC6262461C61B2466C610246CC6042472
:1043C00071C6F92377C6EE237CC6E22382C6D723C3
:1043D00087C6CC238DC6C12392C6B52398C6AA230F
:1043E0009DC69F23A3C69423A8C68823AEC67D235B
:1043F000B4C67223B9C66723BFC65B23C5C65023A4
:10440000CAC64523D0C63A23D5C62E23DBC62323EE
:10441000E1C61823E6C60D23ECC60123F2C6F62238
:10442000F7C6EB22FDC6E02203C7D52209C7CA2280
:104430000EC7BE2214C7B3221AC7A82220C79D22C6
:1044400025C792222BC7872231C77B2237C770220C
:104450003DC7652242C75A2248C74F224EC7442251
:1044600054C739225AC72D225FC7222265C7172297
:104470006BC70C2271C7012277C7F6217DC7EB21DC
:1044800083C7E02189C7D5218FC7CA2195C7BE211F
:104490009AC7B321A0C7A821A6C79D21ACC7922166
:1044A000B2C78721B8C77C21BEC77121C4C76621A6
:1044B000CAC75B21D0C75021D6C74521DCC73A21E6
:1044C000E2C72F21E8C72421EEC71921F5C70E2125
:1044D000FBC7032101C8F82007C8ED200DC8E22062
:1044E00013C8D72019C8CC201FC8C12025C8B620A2
:1044F0002BC8AB2032C8A02038C895203EC88A20DF
:1045000044C87F204AC8742050C8692057C85E201C
:104510005DC8542063C8492069C83E2070C8332054
:1045200076C828207CC81D2082C8122089C8072090
:104530008FC8FC1F95C8F11F9BC8E71FA2C8DC1FCE
:10454000A8C8D11FAEC8C61FB5C8BB1FBBC8B01F07
:10455000C1C8A51FC8C89B1FCEC8901FD4C8851F3F
:10456000DBC87A1FE1C86F1FE8C8651FEEC85A1F75
:10457000F4C84F1FFBC8441F01C9391F08C92F1FAA
:104580000EC9241F15C9191F1BC90E1F21C9031FDE
:1045900028C9F91E2EC9EE1E35C9E31E3BC9D81E17
:1045A00042C9CE1E48C9C31E4FC9B81E55C9AD1E4B
:1045B0005CC9A31E63C9981E69C98D1E70C9831E7C
:1045C00076C9781E7DC96D1E83C9621E8AC9581EB0
:1045D00091C94D1E97C9421E9EC9381EA4C92D1EE1
:1045E000ABC9221EB2C9181EB8C90D1EBFC9021E12
:1045F000C6C9F81DCCC9ED1DD3C9E21DDAC9D81D45
:10460000E0C9CD1DE7C9C31DEEC9B81DF5C9AD1D73
:10461000FBC9A31D02CA981D09CA8E1D10CA831D9D
:1046200016CA781D1DCA6E1D24CA631D2BCA591DCA
:1046300032CA4E1D38CA441D3FCA391D46CA2E1DF6
:104640004DCA241D54CA191D5BCA0F1D61CA041D21
:1046500068CAFA1C6FCAEF1C76CAE51C7DCADA1C50
:1046600084CAD01C8BCAC51C92CABB1C99CAB01C78
:104670009FCAA61CA6CA9B1CADCA911CB4CA861CA4
:10468000BBCA7C1CC2CA721CC9CA671CD0CA5D1CCA
:10469000D7CA521CDECA481CE5CA3D1CECCA331CF2
:1046A000F3CA291CFACA1E1C01CB141C08CB091C16
:1046B0000FCBFF1B16CBF51B1ECBEA1B25CBE01B3C
:1046C0002CCBD51B33CBCB1B3ACBC11B41CBB61B61
:1046D00048CBAC1B4FCBA21B56CB971B5ECB8D1B85
:1046E00065CB831B6CCB781B73CB6E1B7ACB641BA7
:1046F00081CB591B89CB4F1B90CB451B97CB3B1BC9
:104700009ECB301BA5CB261BADCB1C1BB4CB111BEA
:10471000BBCB071BC2CBFD1ACACBF31AD1CBE81A0D
:10472000D8CBDE1AE0CBD41AE7CBCA1AEECBBF1A2D
:10473000F5CBB51AFDCBAB1A04CCA11A0BCC971A4A
:1047400013CC8C1A1ACC821A21CC781A29CC6E1A66
:1047500030CC641A38CC5A1A3FCC4F1A46CC451A82
:104760004ECC3B1A55CC311A5DCC271A64CC1D1A9D
:104770006BCC131A73CC081A7ACCFE1982CCF419BC
:1047800089CCEA1991CCE01998CCD619A0CCCC19D7
:10479000A7CCC219AFCCB819B6CCAE19BECCA419EF
:1047A000C5CC9A19CDCC8F19D4CC8519DCCC7B190A
:1047B000E3CC7119EBCC6719F3CC5D19FACC531922
:1047C00002CD491909CD3F1911CD351919CD2B1934
:1047D00020CD211928CD171930CD0D1937CD03194A
:1047E0003FCDF91846CDEF184ECDE61856CDDC1862
:1047F0005DCDD21865CDC8186DCDBE1875CDB41875
:104800007CCDAA1884CDA0188CCD961893CD8C1889
:104810009BCD8218A3CD7818ABCD6F18B2CD65189B
:10482000BACD5B18C2CD5118CACD4718D2CD3D18AC
:10483000D9CD3318E1CD2A18E9CD2018F1CD1618BD
:10484000F9CD0C1801CE021808CEF81710CEEF17CC
:1048500018CEE51720CEDB1728CED11730CEC817DB
:1048600038CEBE1740CEB41747CEAA174FCEA017EA
:1048700057CE97175FCE8D1767CE83176FCE7A17F7
:1048800077CE70177FCE661787CE5C178FCE531703
:1048900097CE49179FCE3F17A7CE3617AFCE2C170E
:1048A000B7CE2217BFCE1917C7CE0F17CFCE051719
:1048B000D7CEFC16DFCEF216E7CEE816EFCEDF1627
:1048C000F7CED516FFCECB1607CFC21610CFB8162F
:1048D00018CFAF1620CFA51628CF9B1630CF921633
:1048E00038CF881640CF7F1648CF751651CF6C163B
:1048F00059CF621661CF591669CF4F1671CF451641
:1049000079CF3C1682CF32168ACF291692CF1F1646
:104910009ACF1616A3CF0C16ABCF0316B3CFF9154B
:10492000BBCFF015C4CFE615CCCFDD15D4CFD41551
:10493000DCCFCA15E5CFC115EDCFB715F5CFAE1554
:10494000FECFA41506D09B150ED0921516D0881553
:104950001FD07F1527D0751530D06C1538D0631552
:1049600040D0591549D0501551D0471559D03D1553
:1049700062D034156AD02A1573D021157BD0181552
:1049800083D00E158CD0051594D0FC149DD0F31453
:10499000A5D0E914AED0E014B6D0D714BFD0CD1452
:1049A000C7D0C414D0D0BB14D8D0B214E0D0A8144F
:1049B000E9D09F14F2D09614FAD08D1403D1831449
:1049C0000BD17A1414D171141CD1681425D15F1441
:1049D0002DD1551436D14C143ED1431447D13A143D
:1049E00050D1311458D1281461D11E1469D1151435
:1049F00072D10C147BD1031483D1FA138CD1F1132F
:104A000095D1E8139DD1DF13A6D1D513AFD1CC1327
:104A1000B7D1C313C0D1BA13C9D1B113D1D1A8131F
:104A2000DAD19F13E3D19613EBD18D13F4D1841314
:104A3000FDD17B1306D272130ED2691317D2601305
:104A400020D2571329D24E1331D245133AD23C13F8
:104A500043D233134CD22A1355D221135DD21813EB
:104A600066D20F136FD2061378D2FD1281D2F412E0
:104A70008AD2EB1292D2E2129BD2D912A4D2D112D4
:104A8000ADD2C812B6D2BF12BFD2B612C8D2AD12C2
:104A9000D1D2A412D9D29B12E2D29212EBD28A12B4
:104AA000F4D28112FDD2781206D36F120FD36612A0
:104AB00018D35D1221D355122AD34C1233D343128B
:104AC0003CD33A1245D331124ED3291257D3201278
:104AD00060D3171269D30E1272D306127BD3FD1165
:104AE00084D3F4118DD3EB1196D3E3119FD3DA1154
:104AF000A8D3D111B1D3C911BAD3C011C3D3B7113F
:104B0000CCD3AF11D5D3A611DFD39D11E8D3951126
:104B1000F1D38C11FAD3831103D47B110CD472110D
:104B200015D469111ED4611128D4581131D45011F3
:104B30003AD4471143D43E114CD4361155D42D11DB
:104B40005FD4251168D41C1171D414117AD40B11BF
:104B500083D403118DD4FA1096D4F2109FD4E910A7
:104B6000A8D4E010B2D4D810BBD4D010C4D4C7108D
:104B7000CDD4BF10D7D4B610E0D4AE10E9D4A51070
:104B8000F3D49D10FCD4941005D58C100ED5831051
:104B900018D57B1021D573102AD56A1034D5621030
:104BA0003DD5591047D5511050D5491059D5401011
:104BB00063D538106CD5301075D527107FD51F10F0
:104BC00088D5161092D50E109BD50610A4D5FE0FD1
:104BD000AED5F50FB7D5ED0FC1D5E50FCAD5DC0FB2
:104BE000D4D5D40FDDD5CC0FE6D5C40FF0D5BB0F8F
:104BF000F9D5B30F03D6AB0F0CD6A30F16D69A0F69
:104C00001FD6920F29D68A0F32D6820F3CD6790F43
:104C100045D6710F4FD6690F59D6610F62D6590F1D
:104C20006CD6510F75D6480F7FD6400F88D6380FF7
:104C300092D6300F9BD6280FA5D6200FAFD6180FCF
:104C4000B8D6100FC2D6070FCBD6FF0ED5D6F70EAB
:104C5000DFD6EF0EE8D6E70EF2D6DF0EFCD6D70E83
:104C600005D7CF0E0FD7C70E19D7BF0E22D7B70E55
:104C70002CD7AF0E36D7A70E3FD79F0E49D7970E2A
:104C800053D78F0E5CD7870E66D77F0E70D7770EFF
:104C90007AD76F0E83D7670E8DD75F0E97D7570ED3
:104CA000A0D74F0EAAD7470EB4D7400EBED7380EA6
:104CB000C8D7300ED1D7280EDBD7200EE5D7180E77
:104CC000EFD7100EF8D7080E02D8010E0CD8F90D48
:104CD00016D8F10D20D8E90D2AD8E10D33D8D90D19
:104CE0003DD8D20D47D8CA0D51D8C20D5BD8BA0DE8
:104CF00065D8B20D6FD8AB0D78D8A30D82D89B0DB7
:104D00008CD8930D96D88C0DA0D8840DAAD87C0D84
:104D1000B4D8750DBED86D0DC8D8650DD2D85D0D4F
:104D2000DCD8560DE6D84E0DEFD8460DF9D83F0D1C
:104D300003D9370D0DD9300D17D9280D21D9200DE4
:104D40002BD9190D35D9110D3FD9090D49D9020DAE
:104D500053D9FA0C5DD9F30C67D9EB0C71D9E30C7C
:104D60007BD9DC0C85D9D40C8FD9CD0C9AD9C50C44
:104D7000A4D9BE0CAED9B60CB8D9AF0CC2D9A70C09
:104D8000CCD9A00CD6D9980CE0D9910CEAD9890CD1
:104D9000F4D9820CFED97A0C08DA730C13DA6B0C96
:104DA0001DDA640C27DA5D0C31DA550C3BDA4E0C57
:104DB00045DA460C4FDA3F0C5ADA380C64DA300C1C
:104DC0006EDA290C78DA210C82DA1A0C8CDA130CE0
:104DD00097DA0B0CA1DA040CABDAFD0BB5DAF50BA4
:104DE000BFDAEE0BCADAE70BD4DAE00BDEDAD80B67
:104DF000E8DAD10BF3DACA0BFDDAC20B07DBBB0B27
:104E000011DBB40B1CDBAD0B26DBA50B30DB9E0BE3
:104E10003BDB970B45DB900B4FDB890B59DB810BA1
:104E200064DB7A0B6EDB730B78DB6C0B83DB650B5F
:104E30008DDB5E0B97DB560BA2DB4F0BACDB480B1D
:104E4000B6DB410BC1DB3A0BCBDB330BD5DB2C0BD9
:104E5000E0DB250BEADB1E0BF5DB160BFFDB0F0B94
:104E600009DC080B14DC010B1EDCFA0A29DCF30A4E
:104E700033DCEC0A3DDCE50A48DCDE0A52DCD70A0A
:104E80005DDCD00A67DCC90A72DCC20A7CDCBB0AC2
:104E900086DCB40A91DCAD0A9BDCA60AA6DC9F0A7C
:104EA000B0DC990ABBDC920AC5DC8B0AD0DC840A30
:104EB000DADC7D0AE5DC760AEFDC6F0AFADC680AE8
:104EC00004DD610A0FDD5B0A19DD540A24DD4D0A99
:104ED0002EDD460A39DD3F0A44DD380A4EDD320A4E
:104EE00059DD2B0A63DD240A6EDD1D0A78DD160A02
:104EF00083DD100A8EDD090A98DD020AA3DDFB09B5
:104F0000ADDDF509B8DDEE09C3DDE709CDDDE0096A
:104F1000D8DDDA09E2DDD309EDDDCC09F8DDC6091B
:104F200002DEBF090DDEB80918DEB20922DEAB09C8
:104F30002DDEA40938DE9E0942DE97094DDE910977
:104F400058DE8A0962DE83096DDE7D0978DE760926
:104F500083DE70098DDE690998DE6309A3DE5C09D2
:104F6000ADDE5509B8DE4F09C3DE4809CEDE420981
:104F7000D8DE3B09E3DE3509EEDE2E09F9DE28092D
:104F800003DF21090EDF1B0919DF150924DF0E09D4
:104F90002FDF080939DF010944DFFB084FDFF40880
:104FA0005ADFEE0865DFE8086FDFE1087ADFDB082B
:104FB00085DFD40890DFCE089BDFC808A5DFC108D5
:104FC000B0DFBB08BBDFB508C6DFAE08D1DFA8087D
:104FD000DCDFA208E7DF9B08F1DF9508FCDF8F0824
:104FE00007E0890812E082081DE07C0828E07608C6
:104FF00033E070083EE0690849E0630854E05D086A
:105000005EE0570869E0500874E04A087FE0440811
:105010008AE03E0895E03808A0E03208ABE02B08B3
:10502000B6E02508C1E01F08CCE01908D7E0130856
:10503000E2E00D08EDE00708F8E0010803E1FB07F6
:105040000EE1F50719E1EE0724E1E8072FE1E20799
:105050003AE1DC0745E1D60750E1D0075BE1CA073A
:1050600066E1C40771E1BE077CE1B80787E1B207DA
:1050700092E1AC079DE1A607A8E1A007B3E19A077A
:10508000BEE19507CAE18F07D5E18907E0E1830713
:10509000EBE17D07F6E1770701E271070CE26B07B0
:1050A00017E2650722E25F072DE25A0739E254074B
:1050B00044E24E074FE248075AE2420765E23D07E5
:1050C00070E237077BE2310787E22B0792E2250780
:1050D0009DE22007A8E21A07B3E21407BEE20E071A
:1050E000CAE20907D5E20307E0E2FD06EBE2F706B4
:1050F000F6E2F20601E3EC060DE3E60618E3E1064C
:1051000023E3DB062EE3D5063AE3D00645E3CA06E1
:1051100050E3C5065BE3BF0667E3B90672E3B40676
:105120007DE3AE0688E3A80694E3A3069FE39D060D
:10513000AAE39806B5E39206C1E38D06CCE38706A1
:10514000D7E38206E2E37C06EEE37706F9E3710635
:1051500004E46C0610E466061BE4610626E45B06C4
:1051600032E456063DE4500648E44B0654E4450656
:105170005FE440066AE43B0676E4350681E43006E7
:105180008CE42A0698E42506A3E42006AEE41A0679
:10519000BAE41506C5E41006D0E40A06DCE4050608
:1051A000E7E40006F3E4FA05FEE4F50509E5F00599
:1051B00015E5EA0520E5E5052CE5E00537E5DB0525
:1051C00042E5D5054EE5D00559E5CB0565E5C605B3
:1051D00070E5C1057CE5BB0587E5B60592E5B1053F
:1051E0009EE5AC05A9E5A705B5E5A105C0E59C05CB
:1051F000CCE59705D7E59205E3E58D05EEE5880555
:10520000FAE5830505E67E0511E678051CE67305DB
:1052100028E66E0533E669053FE664054AE65F0564
:1052200056E65A0561E655056DE6500578E64B05EC
:1052300084E646058FE641059BE63C05A6E6370574
:10524000B2E63205BDE62D05C9E62805D4E62305FC
:10525000E0E61E05ECE61A05F7E6150503E710057E
:105260000EE70B051AE7060525E7010531E7FC0403
:105270003DE7F70448E7F20454E7EE045FE7E9048A
:105280006BE7E40477E7DF0482E7DA048EE7D6040D
:1052900099E7D104A5E7CC04B1E7C704BCE7C20491
:1052A000C8E7BE04D3E7B904DFE7B404EBE7B00412
:1052B000F6E7AB0402E8A6040EE8A10419E89D0491
:1052C00025E8980431E893043CE88F0448E88A0410
:1052D00054E885045FE881046BE87C0477E878048F
:1052E00082E873048EE86E049AE86A04A5E865040F
:1052F000B1E86104BDE85C04C9E85704D4E853048C
:10530000E0E84E04ECE84A04F7E8450403E9410408
:105310000FE93C041BE9380426E9330432E92F0481
:105320003EE92A044AE9260455E9220461E91D04FC
:105330006DE9190479E9140484E9100490E90B0477
:105340009CE90704A8E90304B4E9FE03BFE9FA03F2
:10535000CBE9F603D7E9F103E3E9ED03EEE9E9036D
:10536000FAE9E40306EAE00312EADC031EEAD703E3
:1053700029EAD30335EACF0341EACA034DEAC6035B
:1053800059EAC20365EABE0370EABA037CEAB503D0
:1053900088EAB10394EAAD03A0EAA903ACEAA50345
:1053A000B7EAA003C3EA9C03CFEA9803DBEA9403BD
:1053B000E7EA9003F3EA8C03FFEA87030AEB83032F
:1053C00016EB7F0322EB7B032EEB77033AEB7303A1
:1053D00046EB6F0352EB6B035EEB67036AEB630311
:1053E00075EB5F0381EB5B038DEB570399EB530385
:1053F000A5EB4F03B1EB4B03BDEB4703C9EB4303F5
:10540000D5EB3F03E1EB3B03EDEB3703F9EB330364
:1054100005EC2F0310EC2B031CEC270328EC2303D3
:1054200034EC200340EC1C034CEC180358EC140340
:1054300064EC100370EC0C037CEC080388EC0503AF
:1054400094EC0103A0ECFD02ACECF902B8ECF5021F
:10545000C4ECF202D0ECEE02DCECEA02E8ECE6028C
:10546000F4ECE30200EDDF020CEDDB0218EDD802F4
:1054700024EDD40230EDD0023CEDCC0248EDC9025F
:1054800054EDC50260EDC1026CEDBE0278EDBA02CA
:1054900084EDB70290EDB3029CEDAF02A8EDAC0233
:1054A000B4EDA802C0EDA502CCEDA102D8ED9D029D
:1054B000E4ED9A02F0ED9602FCED930209EE8F0204
:1054C00015EE8C0221EE88022DEE850239EE810266
:1054D00045EE7E0251EE7A025DEE770269EE7302CE
:1054E00075EE700281EE6D028DEE690299EE660234
:1054F000A6EE6202B2EE5F02BEEE5C02CAEE580297
:10550000D6EE5502E2EE5102EEEE4E02FAEE4B02FC
:1055100006EF470213EF44021FEF41022BEF3E025A
:1055200037EF3A0243EF37024FEF34025BEF3002BE
:1055300067EF2D0274EF2A0280EF27028CEF23021F
:1055400098EF2002A4EF1D02B0EF1A02BCEF170281
:10555000C9EF1302D5EF1002E1EF0D02EDEF0A02E1
:10556000F9EF070205F0040212F001021EF0FD013E
:105570002AF0FA0136F0F70142F0F4014EF0F101A1
:105580005BF0EE0167F0EB0173F0E8017FF0E501FD
:105590008BF0E20198F0DF01A4F0DC01B0F0D9015A
:1055A000BCF0D601C8F0D301D5F0D001E1F0CD01B7
:1055B000EDF0CA01F9F0C70105F1C40112F1C10112
:1055C0001EF1BE012AF1BB0136F1B80143F1B6016B
:1055D0004FF1B3015BF1B00167F1AD0174F1AA01C4
:1055E00080F1A7018CF1A40198F1A201A4F19F011F
:1055F000B1F19C01BDF19901C9F19601D5F1940178
:10560000E2F19101EEF18E01FAF18B0107F28901CD
:1056100013F286011FF283012BF2800138F27E0122
:1056200044F27B0150F278015CF2760169F2730179
:1056300075F2700181F26E018EF26B019AF26801CF
:10564000A6F26601B2F26301BFF26101CBF25E0124
:10565000D7F25B01E4F25901F0F25601FCF2540179
:1056600008F3510115F34F0121F34C012DF34A01C9
:105670003AF3470146F3450152F342015FF340011B
:105680006BF33D0177F33B0184F3380190F336016E
:105690009CF33401A9F33101B5F32F01C1F32C01BF
:1056A000CEF32A01DAF32801E6F32501F3F323010F
:1056B000FFF320010BF41E0118F41C0124F419015E
:1056C00030F417013DF4150149F4130155F41001AC
:1056D00062F40E016EF40C017BF4090187F40701FA
:1056E00093F40501A0F40301ACF40001B8F4FE004A
:1056F000C5F4FC00D1F4FA00DDF4F800EAF4F60099
:10570000F6F4F30003F5F1000FF5EF001BF5ED00E3
:1057100028F5EB0034F5E90040F5E7004DF5E4002D
:1057200059F5E20066F5E00072F5DE007EF5DC007A
:105730008BF5DA0097F5D800A4F5D600B0F5D400C3
:10574000BCF5D200C9F5D000D5F5CE00E2F5CC000D
:10575000EEF5CA00FAF5C80007F6C60013F6C40055
:1057600020F6C2002CF6C00039F6BE0045F6BD009A
:1057700051F6BB005EF6B9006AF6B70077F6B500E1
:1057800083F6B30090F6B1009CF6AF00A8F6AE0029
:10579000B5F6AC00C1F6AA00CEF6A800DAF6A6006F
:1057A000E7F6A500F3F6A300FFF6A1000CF79F00B3
:1057B00018F79E0025F79C0031F79A003EF79800F5
:1057C0004AF7970057F7950063F793006FF7920039
:1057D0007CF7900088F78E0095F78D00A1F78B007D
:1057E000AEF78900BAF78800C7F78600D3F78500BF
:1057F000E0F78300ECF78100F9F7800005F87E0000
:1058000011F87D001EF87B002AF87A0037F878003E
:1058100043F8770050F875005CF8740069F872007E
:1058200075F8710082F86F008EF86E009BF86C00BE
:10583000A7F86B00B4F86900C0F86800CDF86700FD
:10584000D9F86500E6F86400F2F86200FFF861003C
:105850000BF9600018F95E0024F95D0031F95C0075
:105860003DF95A004AF9590056F9580063F95600B3
:105870006FF955007CF9540088F9530095F95100EF
:10588000A1F95000AEF94F00BAF94E00C7F94C002B
:10589000D3F94B00E0F94A00ECF94900F9F9480066
:1058A00005FA470012FA45001EFA44002BFA43009D
:1058B00037FA420044FA410050FA40005DFA3F00D6
:1058C00069FA3D0076FA3C0082FA3B008FFA3A0012
:1058D0009BFA3900A8FA3800B4FA3700C1FA36004A
:1058E000CDFA3500DAFA3400E6FA3300F3FA320082
:1058F00000FB31000CFB300019FB2F0025FB2E00B4
:1059000032FB2D003EFB2C004BFB2B0057FB2B00EA
:1059100064FB2A0070FB29007DFB280089FB27001F
:1059200096FB2600A2FB2500AFFB2400BCFB240055
:10593000C8FB2300D5FB2200E1FB2100EEFB200089
:10594000FAFB200007FC1F0013FC1E0020FC1D00BA
:105950002CFC1D0039FC1C0045FC1B0052FC1A00ED
:105960005FFC1A006BFC190078FC180084FC18001E
:1059700091FC17009DFC1600AAFC1600B6FC150051
:10598000C3FC1400D0FC1400DCFC1300E9FC130081
:10599000F5FC120002FD11000EFD11001BFD1000B0
:1059A00027FD100034FD0F0040FD0F004DFD0E00DF
:1059B0005AFD0E0066FD0D0073FD0D007FFD0C000D
:1059C0008CFD0C0098FD0B00A5FD0B00B2FD0A003C
:1059D000BEFD0A00CBFD0900D7FD0900E4FD09006A
:1059E000F0FD0800FDFD080009FE070016FE070097
:1059F00023FE07002FFE06003CFE060048FE0600C0
:105A000055FE050061FE05006EFE05007AFE0400ED
:105A100087FE040094FE0400A0FE0400ADFE030017
:105A2000B9FE0300C6FE0300D2FE0300DFFE020043
:105A3000ECFE0200F8FE020005FF020011FF02006A
:105A40001EFF01002AFF010037FF010044FF010093
:105A500050FF01005DFF010069FF010076FF0000BB
:105A600082FF00008FFF00009BFF0000A8FF0000E6
:105A7000B5FF0000C1FF0000CEFF0000DAFF00000C
:105A8000E7FF0000F3FF0000000000000D00000031
:105A90001900000026000000320000003F00000056
:105AA0004B0000005800000065000000710000007D
:105AB0007E0001008A00010097000100A3000100A0
:105AC000B0000100BC000100C9000100D6000200C6
:105AD000E2000200EF000200FB00020008010200E9
