:020000040800F2
:10000000C00B00202902000831020008330200085A
:10001000350200083702000839020008000000001D
:100020000000000000000000000000003B0200088B
:100030003D020008000000003F02000861070008C0
:10004000430200084302000843020008430200087C
:10005000430200084302000843020008430200086C
:1000600043020008E50600084302000843020008B6
:10007000430200084302000843020008430200084C
:100080004302000843020008C505000843020008B7
:10009000430200084302000843020008430200082C
:1000A000430200084302000843020008430200081C
:1000B000A50800082D0900084302000843020008B3
:1000C00043020008430200084302000843020008FC
:1000D00043020008430200084302000843020008EC
:1000E00043020008430200084302000843020008DC
:1000F00043020008430200084302000843020008CC
:1001000043020008430200084302000843020008BB
:1001100043020008430200084302000843020008AB
:10012000790600089D060008430200084302000803
:10013000430200084302000843020008430200088B
:10014000430200084302000843020008430200087B
:10015000430200084302000843020008430200086B
:10016000430200084302000843020008430200085B
:100170004302000843020008430200080000000098
:10018000430200084302000800F002F800F03CF8C7
:100190000AA090E8000C82448344AAF10107DA45E2
:1001A00001D100F031F8AFF2090EBAE80F0013F0F8
:1001B000010F18BFFB1A43F001031847F0080000B5
:1001C00010090000103A24BF78C878C1FAD8520745
:1001D00024BF30C830C144BF04680C6070470000C1
:1001E0000023002400250026103A28BF78C1FBD840
:1001F000520728BF30C148BF0B6070471FB500F0E1
:100200004FFC1FBD10B510BD00F031F81146FFF7CF
:10021000F5FF00F0E7FB00F04FF803B4FFF7F2FF43
:1002200003BC00F057F80000094880470948004720
:10023000FEE7FEE7FEE7FEE7FEE7FEE7FEE7FEE796
:10024000FEE7FEE704480549054A064B70470000F3
:100250009508000889010008C0050020C00B002097
:10026000C0070020C00700207047704770477546E0
:1002700000F02CF8AE4605006946534620F0070012
:10028000854618B020B5FFF7DDFFBDE820404FF0F0
:1002900000064FF000074FF000084FF0000B21F070
:1002A0000701AC46ACE8C009ACE8C009ACE8C0093D
:1002B000ACE8C0098D46704710B50446AFF3008026
:1002C0002046BDE81040FFF7A8BF00000048704777
:1002D0005C05002001491820ABBEFEE726000200A5
:1002E000704700006548016841F001010160634802
:1002F0001430016841F480710160016841F40071BB
:100300000160016841F4806101605D48D0F8041328
:1003100041F00601C0F80413D0F8041341F4004181
:10032000C0F80413D0F8041341F40051C0F80413CA
:10033000D0F8041321F48071C0F80413416821F04F
:1003400080714160416821F000714160816841F035
:1003500001018160D0F8041341F40001C0F80413D6
:1003600010214163816821F400618160816821F07E
:10037000706141F000618160816821F0405141F07D
:1003800080518160C16821F4E01141F48021C16095
:100390003C498A6822F0030242F040028A600A68FF
:1003A00042F00C020A6000224A60D0F8041121F0E9
:1003B0008071C0F80411D0F8041121F00071C0F868
:1003C0000411D0F8081141F00101C0F80811012111
:1003D000C0F83411D0F8081141F04051C0F80811AC
:1003E000D0F8081141F07061C0F80811D0F8081178
:1003F00021F40061C0F80811D0F8101121F00701B4
:10040000491CC0F81011816841F0804181601F498A
:100410001D480860091D1E4808601C48083801680E
:1004200041F010010160016821F0C0010160016824
:1004300041F480710160016821F48031016001683C
:1004400041F480610160016821F40071016001687C
:1004500041F480510160016841F48041016001680C
:1004600021F060610160011D0A6842F032020A60F9
:10047000016841F00101016070470000303802401E
:10048000002001400000024008230140186402409F
:10049000940000204648016841F001010160444891
:1004A0001430016841F4806101604248D0F80412C0
:1004B00041F02001C0F80412D0F8041221F080713C
:1004C000C0F80412D0F8041221F00071C0F8041230
:1004D000D0F8081241F00101C0F80812012141636F
:1004E000D0F8081221F40061C0F80812D0F8081200
:1004F00021F0706141F0C061C0F80812D0F8081214
:1005000021F0405141F08051C0F80812D0F8081293
:1005100041F48071C0F80812D0F8081241F400715B
:10052000C0F80812D0F80C1221F0380141F008018F
:10053000C0F80C12D0F8081241F08041C0F808123F
:100540001E491D480860091D1D4808601B480838E1
:10055000016841F010010160016821F0C0010160F3
:10056000016841F480710160016841F480310160EB
:10057000016841F480610160016821F4007101604B
:10058000016841F400610160016841F400510160BB
:10059000016821F0606141F080610160011D0A681D
:1005A00042F400720A60016841F001010160704785
:1005B00030380240002001404C22014030640240AB
:1005C0005C0100200C49D1F80002800713D50022FD
:1005D000C1F80022094883790A2B03D10123C37093
:1005E00082710281D1F84C12054A837922F81310E6
:1005F0008179491C8171704700200140080000206A
:10060000800000201848016841F01001016017487F
:10061000816821F4405141F480318160016821F00A
:1006200040010160C16841F04001C16000214160AA
:100630000D481430016841F4804101600C480168A4
:1006400021F4704141F4804101600A48016841F0A1
:100650000801016007480830016841F008010160A5
:10066000092000F0B1B9000030380240001002400B
:1006700008380140003C014006480068800608D563
:10068000044920200831086003480021018101212C
:1006900001717047006402400800002007480068AC
:1006A000000509D505494FF4006008310860044889
:1006B0000021018101214171704700000064024066
:1006C00008000020064810B5016841F4800101606F
:1006D000382000F079F9BDE81040392000F074B9F5
:1006E000303802400349082008600349012088701F
:1006F00070470000143C01400800002070470000D3
:100700000948016841F0010101600848816821F44D
:10071000405141F480318160016821F4405141F43D
:1007200080510160704700003038024000000240F4
:100730000948016841F0010101600848816821F41D
:10074000404141F480218160016821F4404141F43D
:1007500080410160704700003038024000000240D4
:100760000548C168491CC1600169002902D00169BE
:10077000491E016170470000080000204FF0E02092
:10078000016921F001010161016941F0020101618A
:10079000016941F004010161416901F07F4101F506
:1007A00024313F314161416901F07F4101F524313C
:1007B0003F314161016941F0010101617047000071
:1007C000324810B500230360304908310B60021D28
:1007D00013602F4B1C6824F00704641D1C60036821
:1007E00043F00103036003689B07FCD5036843F4EF
:1007F0008033036003689B03FCD5036823F48023E4
:1008000003600B6823F003039B1C0B600B6823F051
:100810000C0343F008030B600B680B600B6823F4B8
:10082000E05343F4A0530B600B6823F4604343F49C
:1008300000430B600B6823F480330B60116821F0D8
:100840003F01091D1160116847F6C073994341F4D7
:1008500028511160116821F0706141F080611160D0
:10086000116821F480311160116841F48001116038
:10087000016841F080710160044930310A6842F03A
:1008800080020A6001688901FCD510BD0038024071
:10089000003C02400248016841F470010160704769
:1008A00088ED00E04FF080400169C9070BD0016975
:1008B00021F00101016107484278074922B18022F5
:1008C0008A610021417070474FF400028A61012162
:1008D000F8E700000800002000000240124801680C
:1008E00041F0010101600006816821F0070181608B
:1008F00000210160542181624FF47A71C162C168A4
:1009000041F00101C160016821F0100101604168FE
:1009100021F0700141F020014160016841F00101C6
:1009200001601C2000F050B8403802400A480168BD
:10093000C9070BD0016821F0010101600748027866
:10094000074922B140228A610021017070474FF4AB
:1009500080028A610121F8E71004004008000020AD
:10096000000002401648016841F00201016015488C
:10097000016821F007010160124800210838016078
:10098000104A42F2D001203211606421121D116020
:100990000C49091D0A6842F001020A60016821F051
:1009A00010010160011D0A6822F0700242F020026D
:1009B0000A60016841F0010101601D2000F004B8E7
:1009C0004038024008040040002809DB00F01F0204
:1009D000012191404009800000F1E020C0F80011A1
:1009E00070470000FFF7ECFEFFF7C8FEFFF788FE38
:1009F000FFF79EFEFFF7B6FFFFF770FFFFF702FE5F
:100A0000FFF760FEFFF746FDFFF76CFCFFF776FE91
:100A10001C4A1D4910780128FCD1002010701B4B86
:100A20001B4C00BF53F820500E8835440D8053F8FE
:100A300020502D0C24F81050401CC0B23228F1D3A5
:100A400008883223B0FBF3F008800888DFED110A34
:100A500000EE100A1048B8EE400A20EE200ADFED42
:100A60000F0A80ED000A90ED000A30EE600AF0EE09
:100A7000040A80EE201AB3EE090A31EE000A80ED76
:100A8000010AC7E70C00002010000020940000209D
:100A90001C000020D74C4E3F0000002000003E44C8
:100AA0004FF04070E1EE100A70470000CC0A0008D9
:100AB000000000201C000000C4010008E80A000833
:100AC0001C000020A40B0000E00100080000000052
:100AD0000000000000000000000000000000000016
:080AE00000000000000000000E
:040000050800018965
:00000001FF
