:020000040800F2
:10000000E807002029020008310200083302000836
:10001000350200083702000839020008000000001D
:100020000000000000000000000000003B0200088B
:100030003D020008000000003F020008A50400087F
:10004000430200084302000843020008430200087C
:10005000430200084302000843020008430200086C
:10006000430200088103000843020008430200081D
:10007000430200084302000843020008430200084C
:100080004302000843020008E5020008430200089A
:10009000430200084302000843020008430200082C
:1000A000430200084302000843020008430200081C
:1000B000E905000821060008430200084302000881
:1000C00043020008430200084302000843020008FC
:1000D00043020008430200084302000843020008EC
:1000E00043020008430200084302000843020008DC
:1000F00043020008430200084302000843020008CC
:1001000043020008430200084302000843020008BB
:1001100043020008430200084302000843020008AB
:1001200025030008490300084302000843020008B1
:10013000430200084302000843020008430200088B
:10014000430200084302000843020008430200087B
:10015000430200084302000843020008430200086B
:10016000430200084302000843020008430200085B
:100170004302000843020008430200080000000098
:10018000430200084302000800F002F800F03CF8C7
:100190000AA090E8000C82448344AAF10107DA45E2
:1001A00001D100F031F8AFF2090EBAE80F0013F0F8
:1001B000010F18BFFB1A43F001031847980D000008
:1001C000B80D0000103A24BF78C878C1FAD8520799
:1001D00024BF30C830C144BF04680C6070470000C1
:1001E0000023002400250026103A28BF78C1FBD840
:1001F000520728BF30C148BF0B6070471FB500F0E1
:1002000069FC1FBD10B510BD00F031F81146FFF7B5
:10021000F5FF00F0F3FB00F04FF803B4FFF7F2FF37
:1002200003BC00F057F80000094880470948004720
:10023000FEE7FEE7FEE7FEE7FEE7FEE7FEE7FEE796
:10024000FEE7FEE704480549054A064B70470000F3
:10025000D905000889010008E8010020E80700200E
:10026000E8030020E8030020704770477047754698
:1002700000F02CF8AE4605006946534620F0070012
:10028000854618B020B5FFF7DDFFBDE820404FF0F0
:1002900000064FF000074FF000084FF0000B21F070
:1002A0000701AC46ACE8C009ACE8C009ACE8C0093D
:1002B000ACE8C0098D46704710B50446AFF3008026
:1002C0002046BDE81040FFF7A8BF00000048704777
:1002D0008401002001491820ABBEFEE72600020081
:1002E000704700000C49D1F80002800713D50022A6
:1002F000C1F80022094883790A2B03D10123C37076
:1003000082710281D1F84C12054A837922F81310C8
:100310008179491C8171704700200140080000204C
:10032000A800002006480068800608D5044920205F
:1003300008310860034800210181012101717047E3
:10034000006402400800002007480068000509D545
:1003500005494FF40060083108600448002101811C
:100360000121417170470000006402400800002034
:100370000249086108690028FCD170470800002084
:100380000349082008600349012088707047000075
:10039000143C0140080000202148016841F0080198
:1003A0000160016841F002010160016841F0100143
:1003B00001601B480830016841F0010101601848E4
:1003C0001430016841F40061016016480168164A62
:1003D00011430160134808380168144A1143016051
:1003E0001049134818310860091D124808600107B8
:1003F000114801624FF0CC31416281680F4A1143CC
:10040000816001680E4A1143016090036FF07041F2
:10041000C0F8041141F259020260416070470000C7
:1004200030380240080C02400FCF3FFC0A8A2AA84D
:10043000CC00CCC0CC0CC0CC0010024000C0FFFFF0
:100440000080AAAA0948016841F00101016008483A
:10045000816821F4405141F480318160016821F4C8
:10046000405141F480510160704700003038024033
:10047000000002400948016841F00101016008489C
:10048000816821F4404141F480218160016821F4B8
:10049000404141F480410160704700003038024023
:1004A000000002400548C168491CC160016900297B
:1004B00002D00169491E0161704700000800002058
:1004C0004FF0E020016921F001010161016941F073
:1004D00002010161016941F004010161416901F01A
:1004E0007F4101F524313F314161416901F07F4194
:1004F00001F524313F314161016941F001010161A0
:1005000070470000324810B50023036030490831BD
:100510000B60021D13602F4B1C6844F007041C6025
:10052000036843F00103036003689B07FCD503687D
:1005300043F48033036003689B03FCD5036823F412
:10054000802303600B6823F003039B1C0B600B6884
:1005500023F00C0343F008030B600B680B600B687F
:1005600023F4E05343F4A0530B600B6823F460437F
:1005700043F400430B600B6823F480330B60116875
:1005800021F03F01091D1160116847F6C0739943BE
:1005900041F428511160116821F0706141F08061CF
:1005A0001160116821F480311160116841F48001FB
:1005B0001160016841F080710160054930310A68BD
:1005C00042F080020A6001688901FCD510BD00007C
:1005D00000380240003C02400248016841F47001CA
:1005E0000160704788ED00E04FF080400169C90765
:1005F0000BD0016921F001010161074842780749E8
:1006000022B180228A610021417070474FF40002BC
:100610008A610121F8E70000080000200000024084
:100620000A480168C9070BD0016821F00101016087
:1006300007480278074922B140228A6100210170EF
:1006400070474FF480028A610121F8E710040040EE
:10065000080000200000024010B50121002000F039
:1006600031FA0A20FFF784FE3021152000F02AFA23
:100670004021112000F026FA41F22861102000F0FC
:1006800021FA0021122000F01DFA41F24D01132041
:1006900000F018FA0A20FFF76BFE1021122000F07C
:1006A00011FA0A20FFF764FE42F22061102000F0E8
:1006B00009FA43F24D41132000F004FA0A20FFF733
:1006C00057FE4FF48071012000F0FCF94FF44071A7
:1006D000022000F0F7F941F23001032000F0F2F9B6
:1006E00040F20461082000F0EDF90021092000F03B
:1006F000E9F908210A2000F0E5F90221412000F083
:10070000E1F94FF41C51602000F0DCF90121612077
:1007100000F0D8F94FF4C171902000F0D3F9012115
:10072000932000F0CFF91021A32000F0CBF90A208C
:10073000FFF71EFE0021302000F0C4F940F2025104
:10074000312000F0BFF940F20731322000F0BAF951
:1007500040F20531332000F0B5F90421342000F0D7
:10076000B1F940F20241352000F0ACF940F20771D6
:10077000362000F0A7F940F20351372000F0A2F92B
:1007800041F205531946382000F09CF919463920EA
:1007900000F098F90A20FFF7EBFD0121072000F097
:1007A00091F90A20FFF7E4FD2121072000F08AF9E2
:1007B0002321072000F086F90A20FFF7D9FD332115
:1007C000072000F07FF90A20FFF7D2FDBDE81040B6
:1007D00040F23311072000F075B9000001490220F2
:1007E000086070471804024070B50C461E46154656
:1007F000A24201D214468DB20C490A88824201D825
:10080000521E90B24A88511EA24200D88CB2AA420F
:1008100000D88DB22B460246214600F0D1F804489C
:1008200001E00680641CAC42FBDD70BD2C000020A2
:1008300000000860FCB5144606460819401C82B248
:100840000D46081B81B21F46B0B2FFF7CDFF002056
:10085000CDE90007032322462946304600F001F87F
:10086000FCBD2DE9FF4F8146C2F1010007B2C2EB8A
:10087000C23040000E464FF001080FFA80FB002501
:100880001446DDF834A04DE0002F08DB0BF1020028
:100890000FFA80FB641E07EB0B0024B207B208F1CD
:1008A00002000FFA80F807EB080007B26D1C0398EE
:1008B0002DB2C00719D0311901EB0A00401C82B2D9
:1008C000301B81B209EB050080B20E9BFFF78CFF55
:1008D000711901EB0A00401C82B2701B81B209EB56
:1008E000040080B20E9BFFF77FFF0398800719D5A5
:1008F000311901EB0A00401C82B2301B81B2A9EB16
:10090000050080B20E9BFFF76FFF711901EB0A0023
:10091000401C82B2701B81B2A9EB040080B20E9B16
:10092000FFF762FFA542AFDBBDE8FF8F30B50A4D90
:10093000044600216888401E83B22888401E82B287
:10094000084600F03DF8288869884843034900E0DC
:100950000C80401EFCD230BD2C000020000008603E
:10096000154930B43622130708711A80134BA1F1D0
:100970000802F0244FF4A07530B101280BD00228F2
:1009800004D003280DD108E0107800E0907818809A
:100990000C804D8005E0507800E0D07818800D8004
:1009A0004C804888401E83B2088830BC401E82B20A
:1009B0000021084600F004B82C0000200000086068
:1009C00070B54FF0C0452A242C800B4C060A2680B7
:1009D000C0B22080100A2080D0B220802B20288036
:1009E000080A2080C8B22080180A2080D8B220804F
:1009F0002C20288070BD000000000860FFF782FDF9
:100A0000FFF75EFDFFF71EFDFFF734FDFFF7E6FE83
:100A1000FFF7C2FCFFF720FE0120FFF7A1FF4FF414
:100A20007840FFF783FF1E214FF6FF730A22084626
:100A3000FFF700FF1C4A1D4910780128FCD1002057
:100A400010701B4B1B4C00BF53F820500E883544D0
:100A50000D8053F820502D0C24F81050401CC0B2CB
:100A60003228F1D308883223B0FBF3F008800888DD
:100A7000DFED110A00EE100A1048B8EE400A20EE31
:100A8000200ADFED0F0A80ED000A90ED000A30EE3B
:100A9000600AF0EE040A80EE201AB3EE090A31EE85
:100AA000000A80ED010AC7E70C00002010000020BA
:100AB000BC00002044000020D74C4E3F0000002026
:100AC00000003E444FF0C042108001480180704752
:100AD000000002604FF04070E1EE100A7047000025
:100AE00000000000000000000000001010101010B6
:100AF000000010000000006C4848000000000000EA
:100B00000000001414287C287C285050000000109D
:100B100038404038487010100000002050200C7001
:100B20000814080000000000001820205448340079
:100B3000000000101010100000000000000000086D
:100B400008101010101010080800002020101010BD
:100B500010101020200000107C1028280000000039
:100B600000000000101010FE101010000000000027
:100B70000000000000181030200000000000007C81
:100B80000000000000000000000000000030300005
:100B90000000000404080810102020400000003865
:100BA0004444444444443800000000301010101005
:100BB00010107C00000000384404081020447C0021
:100BC0000000003844041804044438000000000CFD
:100BD000141424447E040E000000003C202038043D
:100BE000044438000000001C20407844444438008D
:100BF0000000007C440408080810100000000038C1
:100C00004444384444443800000000384444443CE0
:100C10000408700000000000003030000030300098
:100C2000000000000018180000183020000000002C
:100C30000C10608060100C000000000000007C00C0
:100C40007C00000000000000C02018041820C00034
:100C50000000000018240408100030000000384490
:100C6000444C54544C40443800000030102828288C
:100C70007C44EE00000000F8444478444444F8000A
:100C80000000003C4440404040443800000000F078
:100C9000484444444448F000000000FC4450705074
:100CA0004044FC000000007E2228382820207000EC
:100CB0000000003C4440404E44443800000000EE38
:100CC00044447C444444EE000000007C10101010AA
:100CD00010107C000000003C08080848484830001C
:100CE000000000EE444850704844E60000000070E8
:100CF0002020202024247C00000000EE6C6C545442
:100D00004444EE00000000EE64645454544CEC0083
:100D10000000003844444444444438000000007853
:100D20002424243820207000000000384444444427
:100D30004444381C000000F8444444784844E2002D
:100D4000000000344C40380404645800000000FEE9
:100D50009210101010103800000000EE444444447B
:100D600044443800000000EE4444282828101000B5
:100D7000000000EE4444545454542800000000C6BF
:100D8000442810102844C600000000EE4428281013
:100D9000101038000000007C4408101020447C0033
:100DA0000000003820202020202020203800004093
:100DB0002020201010080808000000380808080843
:100DC000080808083800001010284400000000003F
:100DD00000000000000000000000000000FE001005
:100DE0000800000000000000000000000038443C43
:100DF00044443E00000000C0405864444444F800AD
:100E000000000000003C4440404438000000000C5A
:100E100004344C4444443E00000000000038447C4C
:100E200040403C000000001C207C202020207C0052
:100E30000000000000364C4444443C04380000C02C
:100E4000405864444444EE0000000010007010104C
:100E500010107C000000001000780808080808083E
:100E6000700000C0405C48705048DC00000000305A
:100E70001010101010107C000000000000E8545406
:100E80005454FE000000000000D864444444EE00C6
:100E900000000000003844444444380000000000D2
:100EA00000D8644444447840E000000000364C44DC
:100EB00044443C040E000000006C302020207C00E4
:100EC00000000000003C44380444780000000000AA
:100ED000207C202020221C000000000000CC444484
:100EE000444C36000000000000EE44442828100066
:100EF0000000000000EE445454542800000000009C
:100F000000CC48303048CC000000000000EE442403
:100F10002818101078000000007C481020447C0045
:100F20000000000810101010201010100800001011
:100F300010101010101010100000002010101010D1
:100F400008101010200000000000002458000000CD
:100F500000000000740F00080000002044000000A2
:100F6000C4010008B80F000844000020A4070000D6
:100F7000E001000800000000000000000000000088
:100F80000000000000000000000000000000000061
:100F9000DE0A000807000C0000000000000000004E
:100FA000F000400100010100E0FF0000000000002F
:080FB0001C00002001000000FC
:040000050800018965
:00000001FF
